:100000000C942C070C9473070C9473070C946A33AC
:100010000C9473070C9473070C9473070C94730778
:100020000C9473070C9473070C94221A0C94E01E22
:100030000C94692B0C9473070C9473070C9473073E
:100040000C9473070C9473070C9473070C94730748
:100050000C9473070C94FB1A0C9473070C9473079D
:100060000C9473070C9473070C9473070C94730728
:100070000C9473070C9473070C9473070C94730718
:100080000C9473070C9473070C9473070C94730708
:100090000C9473070C9473070C9473070C947307F8
:1000A0000C9473070C9473070C9473072B001400C3
:1000B0001A00080015001700296104001600070047
:1000C00009000A00E1001D001B00060019000500E0
:1000D000000000000000E30002512A642A0013001F
:1000E00012000C0018001C00340033000F000E003A
:1000F0000D000B0028723800370036001000110088
:10010000000000000000E60003512C442B00140006
:100110001A00080015001700E00004001600070090
:1001200009000A00E1001D001B000600190005007F
:10013000000000000000E30001002C642A0013000E
:1001400012000C0018001C00340033000F000E00D9
:100150000D000B0028723800370036001000110027
:1001600000000000000001530100010035001E02E4
:100170001F022002210222020555000000004A0051
:100180004B0026023900000000004D004E002F02F7
:10019000000000000000280001002C004C00460078
:1001A0004900520024022302350200004F00510092
:1001B000500027020000310030002F0031023002D1
:1001C000000000000000E600010001002B003A00E2
:1001D0003B003C003D003800E0003E003F00400096
:1001E00041002D00E10042004300440045002D0283
:1001F000000000000000E30001002C002A00630062
:100200002600250024002502000000002300220013
:1002100021002E022E00000020001F001E002700DB
:10022000000000000000015301000100C35C000059
:1002300000000000AB00A900C45CCA5CC65CC85CDE
:10024000AE00A800C55CCB5CC75CC95CAC00AA0072
:10025000000000000000E30001002C00000000008E
:10026000F200ED00F100F90000000000F000EE00E7
:10027000EF00FA000000000000000000FC00FB009E
:10028000000000000000005C0100010000DA0281B3
:10029000FFD9F1DB20A4A62EAF00A0C000A1C800AA
:1002A000AED580A81FD300408D14200000000000B0
:1002B000E0100808C8B08080808080808040403C8A
:1002C00014040890180408B04080000000000000EA
:1002D0000102C4A4FC000000008000000000000037
:1002E00000000080C858282A100F000000000000FD
:1002F000000E0904040404020302010102020408BE
:1003000010262B320405060000000000000000E06B
:100310001010F000000000000000008080807828AD
:10032000081020300810204080000000000000036A
:1003300004081011F9010101010101000000000091
:100340000000000110B05055201F00000000000008
:10035000000000000001020C10202837021E20209F
:10036000180C141E01000000000000000000000036
:100370000080402010909090A0C080808070081471
:100380000890101008A47880000000000000000011
:10039000000708FC010000000080000001000000D0
:1003A0000000000818EA100F000000000000000024
:1003B000000000031C20203C0F111F030618202002
:1003C0003C0C121E010000000000000000000000B4
:1003D00000008040202020408000000000E0102825
:1003E000102020201048F000000000000000000055
:1003F000001F20F8020101010101010103000000BA
:100400000001001030D5201F000000000000000097
:100410000000003F20300C020509121E021C1408C7
:1004200010202C320100000000000000000000003D
:1004300000000000000000000000E01C0205022493
:10044000040402A91EE000000000000000000000FB
:100450000000E0100868100804030000000000001D
:10046000000206827C030000000000000000000083
:1004700000000102040C1010202020283E1C202027
:100480003E0F111F000000000000000000000000EF
:1004900000000000000000000000E01C0205022433
:1004A000040402A91EE0000000000000000000009B
:1004B00000E090081860100804030000000000002D
:1004C00000020E827C03000000000000000000001B
:1004D00000000102040C1010202020283E1C2020C7
:1004E0003E0F111F0000000000000000000000008F
:1004F0000000804040404080000000000000C040FC
:1005000040800080408000000000000000000000EB
:100510001E21F00402020202030202040404030189
:10052000000009018080AB04F8000000000000001A
:100530000000031C20203C0F111F02061820203849
:10054000081018040402020100000000000000006E
:100550000000804040408000000000000000E0A05B
:10056000204080C02040800000000000000000000B
:100570003E41F004020202030202020404020100EE
:1005800000000400404055827C0000000000000094
:1005900000003F20300C020509121E04181008103C
:1005A00020283406020101000000000000C02010D5
:1005B000D030000000000000008080403C1404089F
:1005C00090180408B04080000000000000030408F8
:1005D0001011F901010101010100000000000000FB
:1005E00080C848282A100F0000000000000000000A
:1005F00000000001020C1020283702020408102617
:100600002B320405060000000000000000E010107E
:10061000F00000000000000000808040402C140426
:100620000890180408B0408000000000000304088F
:100630001011F9010101010101000000000000009A
:100640000080C048282A100F204A0910000000002E
:1006500000000001020C10202837020204081026B6
:100660002B3204050600000000000000000000001E
:1006700000000000000000C0F0F8F8F8F0F6FBFB06
:100680003810000000000000000000000000000022
:100690000000000000000001070F1F1F0F0F1F1FA9
:1006A0000F06000000000000000000000001010132
:1006B000010101010101020202020202020202031F
:1006C00003030303030303040404040404040505EF
:1006D00005050506060606060707070707080808B2
:1006E00008090909090A0A0A0B0B0B0C0C0C0D0D61
:1006F0000D0E0E0E0F0F0F101011111112121313F9
:100700001414151516161717181819191A1A1B1B71
:100710001C1D1D1E1E1F20202122222324242526CD
:1007200026272829292A2B2C2D2D2E2F3031323205
:10073000333435363738393A3B3C3D3E3F40414211
:10074000434445464748494A4C4D4E4F50515354F7
:10075000555658595A5B5D5E5F61626465666869AB
:100760006B6C6D6F7072737577787A7B7D7E80822B
:10077000838587888A8C8E8F91939596989A9C9E74
:10078000A0A2A3A5A7A9ABADAFB1B3B5B7BABCBE84
:10079000C0C2C4C6C9CBCDCFD1D4D6D8DBDDDFE251
:1007A000E4E7E9EBEEF0F3F5F8FAFDFF00AF00AE99
:1007B00005010902A10185020901A100050919012C
:1007C00029081500250195087501810205010930E8
:1007D00009311581257F9502750881060938158133
:1007E000257F950175088106050C0A3802158125BB
:1007F0007F950175088106C0C005010980A10185AA
:100800000319012AB700150126B70095017510815B
:1008100000C0050C0901A101850419012AA00215D7
:100820000126A002950175108100C005010906A1ED
:10083000018506050719E029E715002501950875CA
:100840000181020507190029EF1500250195F075B2
:100850000181020508190129059505750191029587
:100860000175039101C005010906A101050719E001
:1008700029E7150025019508750181029501750884
:1008800081010507190029FF150026FF009506754F
:100890000881000508190129059505750191029542
:1008A0000175039101C009023B00020100A0FA0991
:1008B000040000010301010009211101000122408F
:1008C000000705810308000A090401000103000074
:1008D0000009211101000122B60007058203200052
:1008E0000A12010002000000085346010001000145
:1008F0000200010C0343006F0072006E00650000EF
:1009000000100366006F006F007300740061006EDA
:10091000000000040309040000000000003E5B4FDB
:100920005B3E003E6B4F6B3E001C3E7C3E1C001845
:100930003C7E3C18001C577D571C001C5E7F5E1CD3
:100940000000183C180000FFE7C3E7FF0000182470
:10095000180000FFE7DBE7FF0030483A060E0026EC
:100960002979292600407F05050700407F05253F9E
:10097000005A3CE73C5A007F3E1C1C0800081C1C27
:100980003E7F0014227F2214005F5F005F5F00063D
:10099000097F017F00006689956A00606060606081
:1009A0000094A2FFA2940008047E04080010207E98
:1009B00020100008082A1C0800081C2A0808001E2D
:1009C00010101010000C1E0C1E0C0030383E383079
:1009D00000060E3E0E060000000000000000005F52
:1009E000000000000700070000147F147F1400249B
:1009F0002A7F2A12002313086462003649562050C9
:100A000000000807030000001C22410000004122F2
:100A10001C00002A1C7F1C2A0008083E0808000051
:100A200080703000000808080808000000606000BE
:100A3000002010080402003E5149453E0000427F5C
:100A40004000007249494946002141494D33001890
:100A500014127F10002745454539003C4A49493169
:100A600000412111090700364949493600464949E4
:100A7000291E0000001400000000403400000000A7
:100A80000814224100141414141400004122140804
:100A9000000201590906003E415D594E007C1211C9
:100AA000127C007F49494936003E41414122007F86
:100AB0004141413E007F49494941007F09090901FF
:100AC000003E41415173007F0808087F0000417FCC
:100AD0004100002040413F01007F08142241007F77
:100AE00040404040007F021C027F007F0408107FCE
:100AF000003E4141413E007F09090906003E415147
:100B0000215E007F09192946002649494932000320
:100B1000017F0103003F4040403F001F2040201F55
:100B2000003F4038403F006314081463000304781A
:100B30000403006159494D4300007F4141410002D7
:100B40000408102000004141417F0004020102041A
:100B5000004040404040000003070800002054547B
:100B60007840007F28444438003844444428003802
:100B70004444287F0038545454180000087E090269
:100B8000001824241C78007F080404780000447DA9
:100B90004000002040403D00007F1028440000003D
:100BA000417F4000007C04780478007C08040478CD
:100BB000003844444438007C1824241800182424A5
:100BC000187C007C08040408004854545424000491
:100BD000043F4424003C4040207C001C2040201C5A
:100BE000003C4030403C004428102844004C909089
:100BF000907C004464544C440000083641000000DE
:100C000000770000000041360800000201020402E3
:100C1000003C2623263C00000000000000000000ED
:100C200000000000000000C0E0F0F8F81800C0F07C
:100C3000FCFEFFFFFFFFFFFFFF7E00000000000043
:100C400000000080C0E0E0E0E0E0E0E0E0C0800024
:100C500000000080C0E0E0E0E0E0E0E0E0C0800014
:100C60000000E0E0C0C0E0E0E0E00000E0E0C0C084
:100C7000E0E0E0E0E0C0800000000080C0E0E0E0F4
:100C8000E0E0E0E0E0C080000000000000000000C4
:100C90000000000000E0F0F0F0E0ECEEF7F3702070
:100CA000007C7C7C7E007E7E7E7F7F7F000080C01B
:100CB000E07E5B4F5BFEC00000C000DCD7DEDEDE06
:100CC000D7DC00C0000000000000000000000000B1
:100CD0000000000000000000000000000000000014
:100CE000F8FCFEFFE000FFFFFFFFFFFF80FFFFFFBC
:100CF000FFFFFFFFFFFF1F070100000000000000D3
:100D00000000FFFFFF8100000000000081C3C3C39B
:100D10000000FFFFFF8100000000000081FFFFFFD7
:100D20000000FFFFFF01000000000000FFFFFF01C7
:100D30000000000001FFFFFF0000FFFFFF9D1C1CE3
:100D40001C1C1C1C9DDFDFDF0000000000000000F9
:100D500000000000000F1F3F7F7F7F7F7F3F1E0C42
:100D6000001F1F1F3F003F3F3F7F7F7F00307B7F83
:100D70007830202030787F3B0003000F7F0F0F0F6B
:100D80007F0F0003000000000000000000000000D2
:100D90000000000000000000000000000000000053
:100DA000030F1F3F3F3F3F1F1F3F3F7F7F7F3F3F5F
:100DB0001F3F7F7F7F7F7C7878381C0F000000000A
:100DC00000000001030707070707070707030100E3
:100DD00000000001030707070707070707030100D3
:100DE00000000707070000000000000007070700D9
:100DF00000000000000707070000000103070707C5
:100E000007070707070301000000000000000000BB
:100E100000000000000000000000000000000000D2
:100E200000000000000000000000000000000000C2
:100E300000000000000000000000000000000000B2
:100E400000000000000000000000000000000000A2
:100E5000000000000000000011241FBECFEFDAE008
:100E6000DEBFCDBF04B603FE27C080911C08909161
:100E70001D08A0911E08B0911F088730904BA74015
:100E8000B04BD1F410921C0810921D0810921E084D
:100E900010921F0814BE84B7877F84BF0FB6F894E2
:100EA000A895809160008861809360001092600036
:100EB0000FBEE0E0F8E3099528E0AEE6B3E001C03C
:100EC0001D92AC31B207E1F713E0A0E0B1E0EEEF24
:100ED000FCE602C005900D92AE36B107D9F70E942C
:100EE000902B0C944E360C940000FC01AC014C5F2E
:100EF0005F4F8FEF91E32191822728E030E087FF59
:100F000009C0880F892721503109C9F7E417F5076F
:100F100091F70895880FF7CF90910B06937061F0C9
:100F200081110BC0946090930B0610925201809136
:100F30000A06816080930A0608958B3010F098624B
:100F4000F2CF880F880F982BEECF90910B069370FD
:100F500071F080930C0660930D06493708F048E75E
:100F600040930E0680910A06816080930A060895D8
:100F7000E8EDF0E080818E7F80831092E200109295
:100F8000DA001092E100A0EEB0E08C9181608C93C9
:100F900080818F77808319BCA7EDB0E08C918E7F24
:100FA0008C9380818F7E80831092D4050895209148
:100FB000E4003091E50095E6A9012091EC00822F34
:100FC000817020FF06C08091E80080FF06C080E0AD
:100FD00008952091E80022FD1AC08091F905882328
:100FE00089F0853089F08091EB0085FD0FC020915C
:100FF000E4003091E50042175307F9F29150E1F611
:1010000084E0089582E0089583E0089581E00895E2
:10101000EF92FF920F931F93CF937C018B010E945D
:10102000D707C82F811117C08091E80085FD0BC03C
:101030008091E8008E778093E8000E94D70788238C
:1010400099F3C82F08C0F70181917F018093F100C7
:101050000150110949F78C2FCF911F910F91FF90EB
:10106000EF9008958091FB0587FF13C08091E80001
:1010700082FF06C08091E8008B778093E80004C06F
:101080008091F9058111F2CF08958091F9058823A7
:10109000D9F38091E80080FFF8CF8091E8008E7747
:1010A000ECCF982F9093E900242F762F50E08917EA
:1010B00031F07091EC002091ED005091F00021FD95
:1010C00007C09F5F973071F78093E90081E0089532
:1010D0003091EB003E7F3093EB003091ED003D7F8F
:1010E0003093ED003091EB0031603093EB00709362
:1010F000EC002093ED005093F0002091EE0027FDCE
:10110000E0CF80E00895CF92DF92EF92FF920F93AD
:101110001F93CF93DF93C8EDD0E088818F7E8883C3
:10112000E7EDF0E080818160808384E082BF81E030
:101130008093D40588818E7F888302EE10E0F801C9
:1011400010821092DA0081EEC82ED12CF6011082A6
:1011500088818F77888388818068888388818F7D64
:10116000888319BC1092F9051092FA051092F805BF
:101170001092F70590EEE92EF12CF70180818B7F1C
:10118000808388818160888342E060E080E00E9403
:101190005108F60180818E7F8083F8018081816013
:1011A0008083808188608083F70180818E7F808347
:1011B000888180618883DF91CF911F910F91FF908B
:1011C000EF90DF90CF900895FC01809101069091FF
:1011D000020686179707A0F06115710529F4909112
:1011E000E8009E779093E80090E06115710551F456
:1011F000911108C08091E80082FF34C080E008951A
:10120000BC01F2CF8091F9058823C1F18530C1F18D
:101210008091E80083FD30C08091E80082FDEACF34
:101220008091E80080FFE1CF8091F3002091F200EF
:10123000382F6115710519F02830310558F091E00B
:101240002830310509F090E02091E8002E772093B6
:10125000E800CBCF81918093F100615071092F5F3D
:101260003F4FE7CF8091F905882341F0853041F069
:101270008091E80083FFBECF81E0089582E0089569
:1012800083E0089508958091D605089587E797E74C
:10129000909301088093000888E19AE00FB6F894D3
:1012A000A895809360000FBE90936000FFCFCF920F
:1012B000DF92EF92FF922FB7F894C090CB05D090B9
:1012C000CC05E090CD05F090CE052FBFA70196018B
:1012D000261B370B480B590BCA01B901FF90EF9041
:1012E000DF90CF9008952FB7F8946091CB0570915F
:1012F000CC058091CD059091CE052FBF089520910A
:101300004E012223C9F02091CF0527FF15C0E62FFB
:10131000E695E695E695EE31D8F4E80FF92FF11D44
:10132000677021E030E001C0220F6A95EAF720954E
:101330008281282322830895FC0132960896219108
:10134000621303C0DF0111971C92E817F907B9F780
:10135000089520914E012223C1F02091CF0527FF4F
:1013600014C0E62FE695E695E695EE31F8F4E80F21
:10137000F92FF11D677021E030E001C0220F6A955E
:10138000EAF78281822B82830895FC0132962FEF47
:1013900030E04191641751F02F3F19F4411101C021
:1013A000232F3F5F3630A9F72F3F09F40895820FAE
:1013B000911D27FD9A95FC01628308952091C8052F
:1013C0003091C9052817390771F09093C9058093AA
:1013D000C805E091C605F091C705309721F000845B
:1013E000F185E02D099408952091C4053091C5053B
:1013F0002817390771F09093C5058093C405E091D3
:10140000C605F091C705309721F00680F781E02DE1
:1014100009940895CF93DF9320911A0830911B0807
:1014200024513640A901460F571F4130524020F049
:1014300060E072E0621B730B40911206509113063C
:10144000FC01C901620F731FC1E0D0E08617970746
:1014500038F05093130640931206DF91CF91089510
:101460002491DC01AC5EB94F3C91321781F02C9392
:101470009C01A5E036952795AA95E1F7DE0102C00B
:10148000AA0FBB1F2A95E2F79D014A2B532B019609
:101490003196DCCF2091110636E0839FC0011124E4
:1014A000629F800D911D1124811522E0920714F096
:1014B00090E080E08C5E994F90931B0880931A080F
:1014C0000895FA01811101C0FB010994EBE0F6E0F7
:1014D000248130E1231B08F420E0248380910A0654
:1014E000816080930A060895EBE0F6E0248130E104
:1014F000230F08F42FEF248380910A0681608093E4
:101500000A060895EBE0F6E0438120E1421B08F46F
:1015100040E08181628190E00C94A507EBE0F6E069
:10152000438120E1420F08F44FEF8181628190E016
:101530000C94A507EBE0F6E0628120E1621B08F461
:1015400060E08181438190E00C94A507EBE0F6E038
:10155000628120E1620F08F46FEF8181438190E0A6
:101560000C94A507EBE0F6E081814381628188500D
:10157000990B0C94A507EBE0F6E0818190E04381A4
:10158000628108960C94A50780910B068695869536
:10159000815009F48AE00C948C0780910B068695A3
:1015A00086958F5F8B3008F081E00C948C07322F8A
:1015B00050E0FA01EE0FFF1FE556FD4F91A9905242
:1015C00097FD9195440F551FFA01E553FD4F20817A
:1015D000231B330B290F311D97FD3A95620F089598
:1015E000E42FF0E0EE0FFF1FE553FD4F6081621B1B
:1015F0000895622F08950C94DC12FF920F931F93AD
:10160000CF93DF93182F062FF42ED0E0C0E02F2DBC
:10161000402F612FCE010E94FB0A2196C633D105CF
:10162000B1F7DF91CF911F910F91FF900895EF9245
:10163000FF920F939701201B31092F3F310519F0BD
:1016400010F02FEF30E0322F3095482F430F08F481
:101650004FEF842F620F0F91FF90EF9008950F933B
:101660001F93522F10E0F801EE0FFF1FE556FD4FBC
:10167000A1A9A052BB0B9D015203F001539FF00D95
:101680001124000F111FD801A553BD4F0C91005715
:10169000110B40039001419F300D11242E0F3F1F6D
:1016A00037FF02C021583F4F220F232F221F330B39
:1016B000620F1F910F910895E82F86FDE0952E2F60
:1016C0002F7086FD2F5FE695E695E695E670F0E0D3
:1016D000ED56FD4F9181929F902D212D11249295D1
:1016E0009F702295207F922B2081920F87FD9195EC
:1016F00080E8890F089530E020E0869F212D969F95
:10170000200D311D1124C9010895AF92BF92CF92CF
:10171000DF92FF920F931F93CF93DF93362F472FC4
:10172000E82FF0E0E455F94F71110FC0E4918E2FCE
:101730002E2F6E2F722FDF91CF911F910F91FF905F
:10174000DF90CF90BF90AF900895C72FD0E0249145
:10175000F22E022F10E056E0659FC0011124EFEF3A
:10176000F0E0BF010E94E434832F90E0880F991FBE
:1017700035E5369FD001379FB00D11248A1B9B0B96
:10178000982F990F980F6F01CC1ADD0AC09ED001D7
:10179000C19EB00DD09EB00D11248B2F499FA0018A
:1017A0001124452F55276F01C41AD50AC09EA001E8
:1017B000C19E500DD09E500D11245F01A91AB10891
:1017C000AC9E6001AD9ED00CBC9ED00C1124CD2CE3
:1017D000DD24EC19FD09E09FE001E19FD00DF09FB1
:1017E000D00D1124ED2F62307105A1F050F4611578
:1017F000710509F49ECF6130710581F0EB2F852FC3
:1018000098CF6430710569F080F06630710509F495
:1018100090CFF4CFE22F2B2F8D2F8BCFE22F252FC0
:1018200088CFEB2F822F2D2F84CF2B2F8F2DE52FBD
:1018300080CF4091C2048D3E59F48091C30487FF4C
:101840000DC01092C30441110BC01092BA0408C01D
:101850008E3E81F48091C30418169CF3442381F0DA
:101860008091C4049091C504892B09F05AC010924C
:10187000B90408958F3E49F447FFF0CF1092C20497
:101880008091C3048111ECCFE0CF803F19F414168E
:10189000ACF3E4CF9091C404893F29F41916F4F60F
:1018A0001092C404DBCF8A3F19F497FFD7CFF8CF4B
:1018B0009091C5048B3F29F497FFD0CF1092C504B7
:1018C000CDCF8C3F19F41916CCF3C8CF9FE0980FF9
:1018D000983090F4815F990B21E030E0B90102C0AB
:1018E000660F771F8A95E2F7CB0180959091C1042E
:1018F00089238093C104B2CF8D3F31F48091BB0422
:101900008E7F8093BB04AACF8E3F21F48091BB04CD
:101910008D7FF7CF8F3F09F0A1CF8091BB048B7FE4
:10192000F0CF08958091BB0480FD16C081FD16C0E4
:1019300082FD16C08091B9048823A1F0883280F41A
:1019400028E0829FC001112468E270E00E94043503
:10195000862F672B39F0089582E0089584E008957A
:1019600088E0089581E008958091BB0480FD14C053
:1019700081FD14C082FD16C08091BA04882381F0D5
:10198000843180F422E3829FC001112464E170E07D
:101990000E940435862F08958CE0089589E108950A
:1019A00085E0089582E308958D3E31F40E94B40CE1
:1019B00081958093C30408958E3E19F40E94B40C5F
:1019C000F8CF8F3E31F40E94B40C81958093C2040D
:1019D0000895803F19F40E94B40CF8CF893F29F490
:1019E0000E94920C8093C40408958A3F21F40E94BF
:1019F000920C8195F7CF8B3F31F40E94920C819528
:101A00008093C50408958C3F19F40E94920CF8CF7E
:101A10009FE0980F983070F4815F990B21E030E0DF
:101A200001C0220F8A95EAF78091C104822B80932E
:101A3000C10408958D3F31F48091BB04816080938F
:101A4000BB0408958E3F21F48091BB048260F7CFE0
:101A50008F3FB9F78091BB048460F1CF80E0089597
:101A600078940895F894E82FE295EF70F0E031A1B2
:101A7000282F2F7081E090E001C0880F2A95EAF7A7
:101A8000982F9095932391A392A1892B82A30C94D4
:101A9000300D9091CF0592FF06C0282F2871283075
:101AA000F9F4877F846093FF06C0282F28712831BE
:101AB000F1F4877E84612091D00520FF06C0382F85
:101AC00038713830D9F4877F816021FF06C0282F14
:101AD00028712831D1F4877E816194FD877E089535
:101AE000282F24712430F9F68B7F8860DCCF282FD3
:101AF0002471243101F78B7E8861DDCF382F31715D
:101B0000313019F78E7F8860E0CF282F2171213185
:101B100021F78E7E8861E1CFCF93DF93EC0182388D
:101B20009105A9F1D8F58133910509F496C048F5DE
:101B30008932910509F48AC08A9709F495C0C115C4
:101B400021E5D20708F0BCC0C11530E5D30708F085
:101B500014C1C83ED10508F09CC0C13ED10560F556
:101B6000C83AD10508F087C0C53AD10508F0FDC0D4
:101B7000C130D10509F12097F9F0C430D105E0F466
:101B800040C08533910509F45AC0C997C1F68091C8
:101B9000CF05837089F0C0EED0E00EC0833E910582
:101BA00099F170F4803E910501F1823E910539F67C
:101BB0008091CF0582FD21C0CE01DF91CF910895A4
:101BC000863E910561F1873E910571F1843E910554
:101BD00009F0B5CF8091D00581FFEECF8091CF0580
:101BE000C7EED0E084FD0DC0E7CF8091CF0580FD2A
:101BF00012C19091D00590FFDFCFC3EED0E084FFFB
:101C0000DBCFD0E0C0E0D8CF8091CF0582FD06C108
:101C10009091D00590FDBFCF84FFCECFF2CF8091C1
:101C2000CF0583FDDDCFC8CF8091CF0583FDF9C0FF
:101C30009091D00591FFF0CFC4EED0E0BDCF809160
:101C4000CF0585FFB9CFC9E2D0E0B6CF8091CF05EF
:101C500085FFB2CFC5E3D0E0AFCF8091CF0586FF3F
:101C6000ABCFCAE2D0E0A8CF8091CF0586FFA4CF4A
:101C7000C1E3D0E0A1CFCF3BD10518F6C85AD0E0E0
:101C8000CC0FDD1FC35BDD4F0990D881C02DD4641C
:101C900093CFC11540E2D40758F4C11581E0D807AD
:101CA00008F08ACFCD3ED10508F4ABCFD06584CF04
:101CB000C11590E4D90708F4A4CFDF70D06A7CCFB7
:101CC000C11525E5D20700F5C11534E5D30708F0A5
:101CD0008AC0C11543E5D40708F071C0C11582E57B
:101CE000D80708F467C0CE018370992721E030E05F
:101CF00002C0220F331F8A95E2F7C695C69580E28F
:101D0000C89FE001112452C0C11599E5D907A8F474
:101D1000C11528E5D20708F06BC0C11536E5D30719
:101D200008F06FCF8C2F0E94490DC82FD0E0DC2F18
:101D3000CC27CC27DF71D0623FCFC1154AE5D4074D
:101D400008F45BC0CE0190568115904208F059CF3F
:101D50008D2F8F710E94490D90E0982F882788273A
:101D60009F719C012C2BE901E6CFC55AD0E0C65BE0
:101D7000DD4FC881D0E0D0641FCFCE01E4E096955E
:101D80008795EA95E1F783702C2F26952695237089
:101D900040E2249F90011124382B8C2F8370C1E0E6
:101DA000D0E002C0CC0FDD1F8A95E2F7C22BD32B07
:101DB000DC6802CFDC2FCC27C16FD06AFDCECE010C
:101DC0008370992721E030E002C0220F331F8A95EB
:101DD000E2F7C695C69590E2C99FE0011124C22B97
:101DE000D32BDA68E9CEDC2FCC27C46FD06AE4CEDF
:101DF000DC2FCC27C06FD06ADFCE8C2F8F700E9473
:101E0000490D34E0D695C7953A95E1F7CF709C2FF0
:101E1000EC01D069D1CEC9E3D0E0CECEC2EED0E0A5
:101E2000CBCEC6EED0E0C8CE8091EC0381111092EB
:101E3000EC03089580959091EB0398239093EB0326
:101E400008958091EB039091EA03892B9091E90327
:101E5000892B809370039091EC039923A1F0892B37
:101E60008093700380914E01882341F18091CF05CA
:101E700087FF24C08EE1E2E7F3E090E0815000F5B7
:101E800091110E94140FE091C605F091C70530979B
:101E9000E1F080914E01882359F08091CF0587FFB2
:101EA00007C0809170038093710386E08093700374
:101EB0000280F381E02D80E793E0099486E0DBCF98
:101EC00021912223D9F29F5FD9CF08958091E70312
:101ED0009091B603981301C008958F5F8770FACF71
:101EE000AF92BF92CF92DF92EF92FF920F931F9328
:101EF000CF93DF93C0908404D0908504E090860453
:101F0000F09087044091ED035091EE036091EF0350
:101F10007091F003C42AD52AE62AF72ACFE1D0E04F
:101F2000082F10E026E0929F000D111D112490E370
:101F3000A92EBC2ED701C6010C2E04C0B695A795BC
:101F4000979587950A94D2F780FD0FC0219788F75F
:101F5000B12C8B2DDF91CF911F910F91FF90EF90BE
:101F6000DF90CF90BF90AF900895AC9EF001AD9EF2
:101F7000F00D1124E00FF11FEE0FFF1FE455FF4F8E
:101F8000859194910E948C0D019701F3E2CFCF933C
:101F9000DF93EC010E94700FEC2FF0E096E0D99FE8
:101FA000E00DF11D112490E3899FE00DF11D112436
:101FB000EE0FFF1FE455FF4F85919491DF91CF9174
:101FC0000C948C0DE92FEE0FE90FEE0F8E0F982F6A
:101FD000977086958695869525E0829FF00111245D
:101FE000EE56FC4F50E040E080E0219130E0092EB9
:101FF00002C0369527950A94E2F721703327042E04
:1020000001C0220F0A94EAF7822B4F5F5F4F4530E1
:10201000510559F70895E92FEE0FE90FEE0F8E0FD6
:10202000982F977041E001C0440F9A95EAF7869582
:102030008695869595E0899FF0011124EE56FC4F18
:1020400030E020E070E05191DF011197CB01022ECA
:1020500002C0969587950A94E2F78170819585274D
:10206000842385278C932F5F3F4F2530310559F707
:102070000895FC01808191810E94C70F292F2F7044
:1020800092959F7092509E3078F4E92FF0E0E05BDB
:10209000F94C0C941835803F19F020F4883E20F458
:1020A00081E00895843FE1F380E00895883EC0F325
:1020B000813FD1F7F5CF822F869586958695089535
:1020C000882321F00E941A0F0C94210F0895882371
:1020D00039F09091EB03982B9093EB030C94210F24
:1020E0000895CF93DF93C0911A08D0911B088A30CE
:1020F000C1F420911106CE0184519640622F70E008
:102100000E94E434281B822F66E00E94F834C82F16
:10211000C15018F4DF91CF91089580E20E947110B0
:10212000F7CF8D30E9F4C451D64020911106622FCB
:1021300070E0CE010E94E434281B822F9E01280FFC
:10214000311D2115324018F080E0D0E0C0E0C80F0A
:10215000D11DCC5ED94FD0931B08C0931A08DACF9B
:1021600096E0FE01A4E1B8E001900D929A95E1F7A6
:10217000803E08F458C086E0FE0111928A95E9F786
:10218000C0911A08D0911B0846E050E0BE0184E1DE
:1021900098E00E9483359E0124513640892B41F1FD
:1021A000C90145E0969587954A95E1F741E050E0F1
:1021B000BA0102C0660F771F8A95E2F7CB016091E2
:1021C000120670911306862B972BB9016B5F7F4F18
:1021D000E5E076956795EA95E1F702C0440F551F53
:1021E0006A95E2F7842B952B909313068093120641
:1021F0002A5F3F4F40911106642F70E0C9010E9491
:10220000E434481B463010F4240F311D211572E0D0
:10221000370710F030E020E02C5E394F30931B0878
:1022200020931A0877CFF6E08F9FB0011124695EE2
:10223000764F46E050E0CE010E947A35A1CF0F9351
:102240001F93CF93DF93EC01FC0101900020E9F78D
:102250008F0101501109C017D10728F0DF91CF91EC
:102260001F910F91089589910E947110F4CFCF9220
:10227000DF92EF92FF920F931F93CF93DF936C0146
:102280007B0164E670E088E70E94C131EC0197FDB4
:1022900012C010E000E0F601E00FF11F849164E647
:1022A00070E00E943B32EC01892B29F40F5F1F4F35
:1022B0000E151F0581F70E94BE32CE01DF91CF912E
:1022C0001F910F91FF90EF90DF90CF900895809134
:1022D000C2059091C305911103C091E0892708952B
:1022E000882369F062E070E08EEA97E00E9437117F
:1022F000892B19F08091C20508951092C205809132
:10230000C205EBCFCF93C091C2058091C30588234E
:10231000D1F00E947309605A75418F4F9F4F6093AF
:10232000BE057093BF058093C0059093C105C11190
:1023300008C062E070E08CEA97E00E943711892BB8
:1023400029F0C091C2058C2FCF91089581E0809330
:10235000C205F7CF8093D1057093D3056093D20562
:102360008091F905843001F582E08093E9008FEFD8
:102370009091E800815095FD06C095ED9A95F1F792
:1023800000008111F5CF8091E80085FF0DC050E07D
:1023900040E063E070E081ED95E00E9408088091E4
:1023A000E8008E778093E8000895BC0184E00C94E7
:1023B000AA11BC0183E00C94AA119C0182E08093D5
:1023C000E9009FEF8091E800915085FD06C085ED02
:1023D0008A95F1F700009111F5CF8091E80085FF13
:1023E0000CC050E040E066E070E0C9010E940808BF
:1023F0008091E8008E778093E8000895CF93DF9373
:10240000EC0180914E018823B1F18091CF0587FFC7
:1024100032C060E282E08093E9008FEF9091E800A3
:10242000815095FD06C095ED9A95F1F70000811158
:10243000F5CF8091E80085FF1BC080914E0170E0D0
:1024400050E040E0811104C050E040E068E070E0FE
:10245000CE010E9408088091E8008E778093E80002
:1024600080E2FE01A7EDB5E001900D928A95E1F7BB
:10247000DF91CF91089568E081E0CDCF539A3BB1D1
:10248000377F2BB128604FB7F8948CE195E0FC01C1
:102490005191CF0168E02BB9000000C057FF3BB954
:1024A000550F000000C000C000C03BB900C06A95D5
:1024B00091F7F5E08E3B9F0751F74FBF8FE594E012
:1024C0000197F1F700C0000008959F92AF92BF926C
:1024D000CF92DF92EF92FF920F931F93CF93DF93F0
:1024E0007C015B016A018091610401E010E08A30A7
:1024F00010F40AE010E0C1E0D0E0F894B501C701A3
:10250000F6010995982E0E94300D911004C0219675
:102510000C171D076CF4892DDF91CF911F910F913E
:10252000FF90EF90DF90CF90BF90AF909F90089575
:10253000CC9F9001CD9F300D300D112490E080E0B4
:1025400045E34A95F1F70000019682179307C1F71A
:10255000D4CF80913804811110C08091D80080615F
:102560008093D8008AE18A95F1F700C08091D90064
:1025700080FF0AC081E08093380481E090913804A4
:10258000913009F080E0089582E0809338040E9441
:10259000B8071092F905F1CF0E94A912882351F0D3
:1025A000E091C605F091C705309721F00190F081C8
:1025B000E02D099480E00895FF920F931F93CF932D
:1025C000DF93EC01F62E042F122F0E94A912811125
:1025D0000FC0CB31D10564F06B97FE01EE0FFF1FEA
:1025E000EC0FFD1FE45EFA4FF1820083128307C0F7
:1025F0000E94A912882389F3CB31D10574F3DF91AE
:10260000CF911F910F91FF900895CF93C82F0E94F3
:10261000A912882329F081E0CB3128F080E003C0A3
:1026200081E0C633D8F7CF910895EF92FF920F93D0
:102630001F93CF93DF937C01C0914F018BE0C89F24
:10264000C02D11241BE01C0F173308F016E30E9465
:10265000A912882319F01C3108F01BE10E94A9126D
:10266000811103C0CB3108F4CBE160910F06669570
:10267000669521E0620F08F46FEF80910306909158
:1026800004060E947B0B082FD0E0C11748F0812F71
:10269000DF91CF911F910F91FF90EF900C94051354
:1026A000FE01E95CFC4F808190915001892391F0FB
:1026B00060910C0670910D0680910E06202F4C2F14
:1026C000F70109950E94850B462F282F672FCE0111
:1026D0000E94FB0A2196D9CF0F931F930E94A91243
:1026E000882321F01F910F910C9473090E947309A4
:1026F0000091620410916304209164043091650498
:10270000600F711F821F931F1F910F9108951F93D8
:10271000CF93DF93EC01FC01E95CFC4F80816823DF
:10272000C9F00E946A35182F0E946A358F77782F7A
:1027300020E8720F08F47FEF612F80910E060E944F
:10274000850B462F282F672FCE01DF91CF911F9148
:102750000C94FB0ADF91CF911F910895DF92EF92C5
:10276000FF920F931F93CF93DF938C01FC01E95CE1
:10277000FC4F8081682381F1D0900D06D0910E0628
:10278000C0910C06EC2EF12C0E946A35282FC7014F
:102790008C549F4F68E671E00E9404358E199F09A2
:1027A00097FD0396959587959595879523706C2F42
:1027B000289F600D11247D2D8D2F0E94850B462FA3
:1027C000282F672FC801DF91CF911F910F91FF90A4
:1027D000EF90DF900C94FB0ADF91CF911F910F9146
:1027E000FF90EF90DF9008952F923F924F925F926B
:1027F0006F927F928F929F92AF92BF92CF92DF9211
:10280000EF92FF920F931F93CF93DF9300D000D0EE
:102810000F92CDB7DEB74090EF045090F004609077
:10282000F1047090F2040E94A912882309F451C0A7
:10283000C301B2010E9457094B015C010E946C1355
:102840002B013C014092EF045092F0046092F1049D
:102850007092F204A091C604E6ECF4E08A2F90E0B6
:102860004FEF5FEF60E070E0481959096A097B0992
:10287000A91338C08093C60480910B06182F1370DB
:1028800019F0182F1695169590915201913009F470
:1028900053C09923D1F1923009F488C3933009F4DD
:1028A0008DC30F900F900F900F900F90DF91CF91ED
:1028B0001F910F91FF90EF90DF90CF90BF90AF905E
:1028C0009F908F907F906F905F904F903F902F9050
:1028D00008950E946C134B015C0184189508A608AA
:1028E000B708ACCF218D328D6901F12CE12C4C154C
:1028F0005D056E057F0520F481509F5F3296B8CF4D
:10290000280D391D328F218FF8CF10924F01409240
:10291000030650920406609205067092060689E24C
:10292000E6ECF4E0A3EFB4E001900D928A95E1F7B4
:1029300081E080935201B5CF90914D01191322C0CF
:10294000837020914C0130E091E08217130609F466
:1029500090E0892F817080935101809110069091B1
:102960005001981739F08093500140E060E080E01A
:102970000E94FD0A1B3060F4E12FF0E0E25AF94CAE
:102980000C94183581E0E6CF80915101811102C08D
:1029900019829DC140E060E080E00E94FD0AF8CF0E
:1029A00020914F018BE0289F802D11248983082FCF
:1029B000055F073308F006E30E94A912882319F087
:1029C0000C3108F00BE10E94A912811105C0398178
:1029D0003B3110F46BE1698360910C0670910D0638
:1029E00080910E060E94850BD62EC72EB82E998197
:1029F000892F90E09A838983F981F01710F0802F56
:102A00001DC1E981FA81E95CFC4F80819091500100
:102A1000892339F02B2D4D2D6C2D89819A810E94AF
:102A2000FB0AE981FA813196FA83E983E5CF2091A7
:102A30004F018BE0289F802D11248983082F055F8B
:102A4000073308F006E30E94A912882319F00C311D
:102A500008F00BE10E94A912811105C039813B31B8
:102A600010F46BE16983C0900D06D0900E06709152
:102A70000C067B83672F7C2D8D2D0E94850BB62E37
:102A8000A72E982E60910F068B81680F7C2D8D2DBF
:102A90000E94850BD62EC72E882EF981EF2FF0E0ED
:102AA000FA83E9833981301708F0A9CFE981FA81E7
:102AB000E95CFC4F908180915001892361F0282DC1
:102AC0004D2D6C2D90FD03C0292D4B2D6A2D898134
:102AD0009A810E94FB0A29813A812F5F3F4F3A83F6
:102AE0002983E0CF60914F018BE0689F802D1124F6
:102AF0008983082F055F073308F006E30E94A912B7
:102B0000882319F00C3108F00BE10E94A912811101
:102B100005C079817B3110F48BE18983C0900D066B
:102B2000B0900E0620910F06F0E4DF2E3D2D329F6F
:102B3000312D1124D32E7981672F70E07A83698338
:102B40009981901708F05BCFE981FA81E95CFC4F2D
:102B50008081909150018923E9F0E981FA81EE0F9B
:102B6000FF1FE556FD4F60A9D69EB0011124E5E098
:102B700075956795EA95E1F780910C06680F7C2DB5
:102B80008B2D0E94850B462F282F672F89819A81D4
:102B90000E94FB0A89819A8101969A838983D0CF0A
:102BA00089EF9AE00E941513898391C080EF9AE023
:102BB000F9CF87ED9AE0F6CFE0914F018BE0E89FE7
:102BC000802D112489835BE0D52ED80EF6E3FD1508
:102BD00010F446E3D42E0E94A912882329F02BE199
:102BE0002D1510F43BE1D32E0E94A912811105C0CE
:102BF00039813B3110F46BE1698360910F06669572
:102C0000669580910306909104060E947B0BC82E66
:102C100080E48C0D0E945C0B90E8B92EB80E8C2DD0
:102C20000E945C0B20E8A22EA80E9981892F90E0CB
:102C30009A838983F981FD1520F08D2D0E9405135B
:102C4000B3CFE981FA81E95CFC4F8081909150011A
:102C50008923A9F060910C0670910D0680910E06F3
:102C6000EC2C09812A2D4B2D0E942F0B0E94850BE5
:102C7000462F282F672F89819A810E94FB0AE981BC
:102C8000FA813196FA83E983D5CF209151012983C6
:102C9000211130C060910F0620E1620F08F46FEF40
:102CA00080910306909104060E947B0B6AE070E01D
:102CB0000E94E434892B09F06BCE0E946A3566E3EA
:102CC00070E00E940435609150010E94AE13809123
:102CD0004F018F5F80934F01F981F111E2CD82E0C6
:102CE00080935201809151018111DBCD1111D9CD19
:102CF00083E01FCE30914F018BE0389F802D11244F
:102D00008983082F055F073308F006E30E94A912A4
:102D1000882319F00C3108F00BE10E94A9128111EF
:102D200005C069816B3110F47BE179839981892F2A
:102D300090E09A838983C02ED12C29813A812C1569
:102D40003D050CF05CCE6091500189819A810E9412
:102D5000AE13E981FA813196FA83E983EECF30919F
:102D60005101398331111EC060910F0620E1620FBD
:102D700008F46FEF80910306909104060E947B0B8C
:102D800065E070E00E94E434892B09F001CE0E94D6
:102D90006A3566E370E00E940435609150010E943C
:102DA000871395CF60914F018BE0689F802D112490
:102DB0008983082F055F073308F006E30E94A912F4
:102DC000882319F00C3108F00BE10E94A91281113F
:102DD00005C079817B3110F48BE18983F981EF2F74
:102DE000F0E0FA83E983C02ED12C69817A816C15D9
:102DF0007D050CF004CE6091500189819A810E947A
:102E0000871329813A812F5F3F4F3A832983EDCF82
:102E100070914F018BE0789F802D112489830BE006
:102E2000402E480E86E3841510F4B6E34B2E0E9424
:102E3000A912882329F09BE1941510F4ABE14A2EE6
:102E40000E94A912811105C0E981EB3110F4FBE168
:102E5000F9832091F3042B837981672F70E07D83C0
:102E60006C83CB01880F991FFC01E556FD4F6F0164
:102E7000EC81E41510F0842DE1CEEC81FD81E95C5C
:102E8000FC4F808190915001892329F120900C06FC
:102E900030900D062CE035E03A832983E3EFAE2E27
:102EA000E4E0BE2E512C8A2D23EF34E0821B3B81BF
:102EB0008317D0F020910E06652D629F612D11249D
:102EC000862FB1010E94850B462F282F672F8C81FA
:102ED0009D810E94FB0A8C819D8101969D838C833C
:102EE00092E0C90ED11CC4CFF60180A8F501818102
:102EF000881A9908F60161A8F5018185681A770892
:102F0000889C9001899C300D300D1124669CC00175
:102F1000679C900D900D1124820F931F082F823013
:102F2000910524F14FEF813EFEE19F073CF4AC0197
:102F300075E0569547957A95E1F7485F51E0652F22
:102F4000640F7727771F9B0135952795022F229FC6
:102F5000B001239F700D700D11248617970708F597
:102F60004FEF420F451758F70FEF050F60910F060F
:102F700071E0670F08F46FEFE981FA818191919117
:102F8000FA83E9830E947B0B7C019301A401B101C8
:102F9000852D0E94170B1B01FFEFAF1ABF0A582E99
:102FA00082CF2F3F19F351E0520FDCCF10934D0128
:102FB000837080934C010E943E129ACE80910A0643
:102FC000882351F046E050E06CE170E08BE096E041
:102FD0000E94B73510920A0680900306909004066E
:102FE000A0900506B09006060E94A912882369F0F9
:102FF000C501B4010E945709603171058105910531
:1030000008F44FCC109252014CCC0E946C136819FA
:1030100079098A099B09F0CFEBE0F6E085E180832E
:103020008091530190915401A09155018183928325
:10303000A3838FE784838FEF858346E050E06CE1C4
:1030400070E0CF010E94B73510920A060895CF9321
:1030500084E090E00E94A935C82F82E290E00E94AF
:10306000A935982F8C2FCF910895CF93DF9300D05F
:1030700000D0CDB7DEB76091590470915A048091A9
:103080005B0490915C040E945709643671058105C8
:10309000910568F10E946C136E5F7F4F8F4F9F4FB9
:1030A00069837A838B839C83809126019091270189
:1030B0008B5B9B4F4091250150E04530510510F04E
:1030C00044E050E0BE016F5F7F4F0E94903583E087
:1030D00090E00E943034892B61F40E947309609360
:1030E000590470935A0480935B0490935C0481E0CC
:1030F00001C080E00F900F900F900F90DF91CF9163
:1031000008950F931F93CF93DF9300D000D00F92B9
:10311000CDB7DEB78B0190E080E00E943034892B80
:1031200009F078C040910A0150E04115510511F0B5
:1031300041E050E060910B0170910C016B5B7B4FA3
:10314000CE0105960E94903560913D0470913E0439
:1031500080913F04909140040E94570964367105A4
:103160008105910540F486E494E00E9475079D81F5
:10317000891709F45FC081E090E00E943034892B08
:10318000C1F080E04091390450913A0460913B04D1
:1031900070913C04F80140835183628373830F90E4
:1031A0000F900F900F900F90DF91CF911F910F9183
:1031B00008954091140150E04530510510F044E06D
:1031C00050E060911501709116016B5B7B4FCE0151
:1031D00001960E94903586E494E00E9475079D81D7
:1031E0008913CFCF0E94730960933D0470933E040E
:1031F00080933F049093400489819A81AB81BC8184
:103200008093390490933A04A0933B04B0933C0418
:1032100081E0B8CF80E0409146045091470460912E
:1032200048047091490449835A836B837C838111DC
:10323000E3CFA8CF81E0EFCFBF92CF92DF92EF92A2
:10324000FF920F931F93CF93DF93B82EEB01F42ED1
:103250006901688179818A819B810E94570964365E
:1032600071058105910510F4FF2019F1EB2C0B2C51
:10327000000CFF088B2D9AE08902F0011124EB5F0E
:10328000FE4F838194818B5B9B4F428150E00417FA
:10329000150708F4A801B6010E949035C7010E94E5
:1032A0003034892B89F40E947309688379838A8377
:1032B0009B8381E0DF91CF911F910F91FF90EF9061
:1032C000DF90CF90BF90089580E0F4CF0F931F93CD
:1032D000CF93DF9300D000D000D00F92CDB7DEB7F0
:1032E00086E0EBE0F6E0DE01119601900D928A9502
:1032F000E1F71F8247E050E062E574E0CE010196FD
:103300000E94833541E0892B09F440E007E010E09A
:103310009E012F5F3F4F6DE574E084E00E941C1911
:1033200027960FB6F894DEBF0FBECDBFDF91CF91C9
:103330001F910F9108950F931F93CF93DF93EC018B
:1033400044E050E06AE474E00E94833541E0892B58
:1033500009F440E004E010E09E0161E474E082E0E2
:103360000E941C19DF91CF911F910F91089569EE72
:103370007EEF90E080E00E94E53560E082E090E042
:103380000E94C73560E083E090E00E94C73510924C
:10339000ED031092EE031092EF031092F00360E041
:1033A00084E090E00E94C73560E082E290E00E94F5
:1033B000C73560E085E090E00E94C73560E086E0B8
:1033C00090E00E94C7356FEF87E090E00E94C7351C
:1033D00040E050E0BA0188E090E00E94D93560E01A
:1033E0008DE090E00E94C73540E050E0BA0188E1EE
:1033F00090E00E94D93560E087E190E00E94C735F7
:1034000040E050E0BA018CE190E00E94D93570E0D4
:1034100060E080E290E00E94E53540E050E0BA01D3
:1034200088E190E00E94D93540E050E0BA018FE099
:1034300090E00E94D93540E050E0BA0183E190E08D
:103440000C94D9351F920F920FB60F9211242F931F
:103450003F934F935F936F937F938F939F93AF931C
:10346000BF93EF93FF938091E10082FF09C08091A9
:10347000E20082FF05C08091E1008B7F8093E10034
:103480008091DA0080FF24C08091D80080FF20C0A6
:103490008091DA008E7F8093DA008091D90080FFDE
:1034A0009DC080E189BD82E189BD09B400FEFDCFE8
:1034B00081E08093F9058091D405811109C00E94B3
:1034C000B8070E9483088091E20084608093E20044
:1034D0008091E10080FF17C08091E20080FF13C05F
:1034E0008091E2008E7F8093E2008091E200806113
:1034F0008093E2008091D80080628093D80019BC4C
:1035000085E08093F9058091E10084FF2BC08091D4
:10351000E20084FF27C080E189BD82E189BD89B5D1
:10352000982F917080FFFBCF8091D8008F7D809382
:10353000D8008091E1008F7E8093E1008091E200CD
:103540008F7E8093E2008091E20081608093E200B0
:103550008091FA05882309F447C084E08093F90537
:103560008091F9058091E10083FF27C08091E200FE
:1035700083FF23C08091E100877F8093E10082E098
:103580008093F9051092FA058091E1008E7F809377
:10359000E1008091E2008E7F8093E2008091E20062
:1035A00080618093E20042E060E080E00E94510888
:1035B0008091F00088608093F000FF91EF91BF91BF
:1035C000AF919F918F917F916F915F914F913F91BB
:1035D0002F910F900FBE0F901F90189519BC10924D
:1035E000F9051092D40574CF8091E30087FD93E034
:1035F0009093F905B5CF78941F921FB61F921124AE
:103600008F939F93AF93BF938091CB059091CC05FF
:10361000A091CD05B091CE050196A11DB11D80935D
:10362000CB059093CC05A093CD05B093CE05BF916B
:10363000AF919F918F911F901FBE1F9018959C0175
:103640004FB7F8948091CB059091CC05A091CD0512
:10365000B091CE054FBF821B930B08952FB7F894FE
:103660008091CB059091CC05A091CD05B091CE0570
:103670002FBF08950E942E1B9C019091C20480913F
:10368000C304982B21F03093BF042093BE04909183
:10369000C4048091C504982B21F03093BD0420937D
:1036A000BC04E091C605F091C705309749F082E06F
:1036B0008093C0040480F581E02D80EC94E00994AF
:1036C000089590E080E00E94F40990E080E00E947C
:1036D000DE091092EA031092E9030E94210F86E0AE
:1036E000E0ECF4E0DF011D928A95E9F71092BA044C
:1036F0001092B9041092BB040C943A1B609384049A
:103700007093850480938604909387040C94611BC6
:103710000F931F9341E050E060E070E004C0440F5D
:10372000551F661F771F8A95D2F7CB01BA016095A6
:103730007095809590950091840410918504209156
:1037400086043091870460237123822393231F9181
:103750000F910C947E1B9091E803809589238093B0
:10376000E803282F277091F4282F082E000C330B24
:103770009217130659F09091D00592FD07C08595D8
:10378000859585950E94881B1092E8030895CF9334
:10379000C091D005C2FB992790F9981799F080FB4A
:1037A000C2F9C093D0056091CF0584E090E00E94FB
:1037B000C7356C2F82E290E00E94C73582E0CF913E
:1037C0000C94AB1BCF9108950F931F9341E050E0F1
:1037D00060E070E004C0440F551F661F771F8A9594
:1037E000D2F78091840490918504A0918604B091D1
:1037F00087048A019B01082B192B2A2B3B2BC9011B
:10380000B8011F910F910C947E1B6093ED03709390
:10381000EE038093EF039093F0030C94611B1092DE
:10382000EB0380914E01E2E7F3E0882359F08091A9
:10383000CF0587FF07C08EE1DF011D928A95E9F76A
:103840000C94611B86E0F8CF1F93CF93DF93CDB725
:10385000DEB7AA970FB6F894DEBF0FBECDBF8BEFD1
:1038600095E02091F100FC012193CF01F6E0833037
:103870009F07B9F78091FC05833009F470C0B8F454
:10388000813009F447C0823009F4B1C08091E8006A
:1038900083FF7EC28091FB059091FC059A3008F071
:1038A00077C2E92FF0E0E759F94C0C9418358A30CB
:1038B00009F48CC08B3009F46FC0893039F78091DE
:1038C000FB05813219F78091FF0590910006029760
:1038D000E8F68091E800877F8093E8008091E80017
:1038E00082FF38C09091F3008091F200029731F48A
:1038F0008091F100813011F0863021F48091F10047
:103900008093D6058091E8008B778093E8000E9431
:103910003208BCCF8091FB05813A09F0B7CF809186
:10392000E800877F8093E8008091FF059091000672
:10393000892B61F460E287ED95E070E00E94E40875
:103940008091E8008B778093E800A0CF60E090E062
:1039500080E0F3CF8091F9058111C0CF97CF80919E
:10396000FB05813A09F092CF8091FF059091000606
:10397000892B09F08BCF8091E800877F8093E80046
:103980008091E80080FFFCCF80914E018093F10090
:103990008091E8008E77B9CF8091FB05813209F0E4
:1039A00075CF8091FF0590910006892B09F06ECFAD
:1039B0008091E800877F8093E8000E943208809120
:1039C000FD0580934E010E940F1C60CF8091FB0586
:1039D000813209F05BCF8091E800877F8093E80017
:1039E0000E9432088091FE058093D5054FCF8091CB
:1039F000FB05813A09F04ACF8091E800877F8093E8
:103A0000E8008091E80080FFFCCF8091D505BECF13
:103A1000803899F0823809F0BBC18091FF058F7022
:103A2000873008F0B5C18093E9008091EB0085FBF9
:103A3000882780F91092E90006C08091F7059091DF
:103A4000F805911182609091E800977F9093E800CB
:103A50008093F1001092F1008091E8008E7794C17C
:103A6000882309F482C1823009F092C18091FD055A
:103A7000811185C18091FF058F702FEF280F2630AF
:103A800008F086C18093E9002091EB0020FF77C108
:103A9000933031F48091EB0080628093EB006FC132
:103AA0009091EB0090619093EB0021E030E001C039
:103AB000220F8A95EAF72093EA001092EA0080919B
:103AC000EB008860EACF811163C11091FD051F777B
:103AD0008091E3008078812B8093E3008091E8005F
:103AE000877F8093E8000E9432088091E80080FF81
:103AF000FCCF8091E30080688093E30082E01111A5
:103B000083E08093F90544C18058823008F040C1B9
:103B10008091FD059091FE058C3D23E09207A1F573
:103B200083E08A838AE289834FB7F894DE01139693
:103B300020E03EE051E2E32FF0E050935700E491A3
:103B400020FF03C0E295EF703F5FEF708E2F90E093
:103B5000EA30C0F0C7968D939D932F5F243159F7BB
:103B60004FBF8091E800877F8093E8006AE270E0B1
:103B7000CE0101960E94E4088091E8008B77809343
:103B8000E80006C1C096E7CF4091FF0550910006BE
:103B9000292F33272330310509F444C078F521302B
:103BA000310509F46FC08BE390E0E6EAF8E02230DB
:103BB000310509F0EDC02091E800277F2093E8004F
:103BC00020910106309102068217930708F49C01A8
:103BD00040E02115310509F064C0411162C08091B7
:103BE000E80082FDC9CF8091F905882329F285304C
:103BF00019F28091E80083FFF2CFBECF2132310568
:103C0000A9F12232310509F0C3C04115510509F46B
:103C100043C04130510509F0BBC086EB90E0E0EBBA
:103C2000F7E0C9CF992781309105C1F0009759F08D
:103C3000029709F0ADC0E3EFF8E0E4918E2F90E039
:103C4000E3EFF8E007C0E3E1F9E0E4918E2F90E0C4
:103C5000E3E1F9E0009709F49BC0ADCFE1E0F9E0C2
:103C6000E4918E2F90E0E1E0F9E0F4CF41155105A9
:103C700071F04130510509F08BC089E090E0E1ED31
:103C8000F8E099CF82E190E0E1EEF8E094CF89E0AE
:103C900090E0E8EBF8E08FCF80E490E0E6E6F8E033
:103CA0008ACF8091F905882309F466CF853009F41D
:103CB00063CF8091E80083FD5FCF8091E80082FDB3
:103CC0008ECF8091E80080FF84CF9091F3008091A7
:103CD000F2002115310519F08830910550F041E0CE
:103CE000089709F040E08091E8008E778093E80023
:103CF00070CF44914093F1003196215031090196E3
:103D0000E8CF803809F044C08091E800877F809335
:103D1000E8008091FA058093F1009ECE811138C0B1
:103D20001091FD051230A0F58091E800877F809307
:103D3000E8001093FA050E943208112311F084E084
:103D400005C08091E30087FDFACF81E08093F905FB
:103D500042E061EC81E00E94510842E261EC82E0C5
:103D60000E9451088091F90513C08091FD058130B2
:103D700079F481E0933009F080E08093F8051092A7
:103D8000E9008091E800877F8093E8000E94320874
:103D90008091E80083FF0AC08091E800877F8093CC
:103DA000E8008091EB0080628093EB00AA960FB64A
:103DB000F894DEBF0FBECDBFDF91CF911F91089564
:103DC0001F920F920FB60F9211242F933F934F9390
:103DD0005F936F937F938F939F93AF93BF93CF9393
:103DE000DF93EF93FF93D091E900DF708091EC00B7
:103DF000C82FC17080FDC0E81092E9008091F000EA
:103E0000877F8093F00078940E94241C1092E90030
:103E10008091F00088608093F000CD2BCF70C0932C
:103E2000E900FF91EF91DF91CF91BF91AF919F9109
:103E30008F917F916F915F914F913F912F910F9053
:103E40000FBE0F901F901895882379F19CEF980F63
:103E5000913A38F4682F80E793E00E947F090C9430
:103E6000210F90E2980F983050F4877091E001C0D4
:103E7000990F8A95EAF7892F0E941A0FF0CF9BE5D8
:103E8000980F933020F490E080E00C94F40998E5CA
:103E9000980F973120F490E080E00C94DE098D3E7D
:103EA00020F00E94190C0C943A1B0895CF93C82F50
:103EB000882309F46FC08CEF8C0F813AC0F5809194
:103EC0004E01882311F18091CF0587FF1EC0EC2F92
:103ED000E695E695E695F0E0E059FC4F828190E0AA
:103EE0004C2F477021E030E002C0220F331F4A956B
:103EF000E2F782239323892B91F06C2F80E793E0E4
:103F00000E947F090E94210F0AC0E2E7F3E088E7E0
:103F100093E02191C21789F38E179F07D1F76C2F79
:103F200080E793E00E94A909CF910C94210F80E2D1
:103F30008C0F883068F4C77021E030E001C0220F98
:103F4000CA95EAF78091EB03822B8093EB03ECCFC9
:103F5000EBE5EC0FE33040F4F0E0E65BFD4F8081F1
:103F600090E0CF910C94F409E8E5EC0FE73150F4C0
:103F7000F0E0EE0FFF1FE35BFD4F80819181CF9159
:103F80000C94DE09CD3E30F08C2F0E94D40CCF91E2
:103F90000C943A1BCF9108950F931F93CF93DF9307
:103FA000C62FD42F022FFC0182818823A1F06093B9
:103FB00009060E942E1B9093080680930706C7707F
:103FC00081E001C0880FCA95EAF7DF91CF911F9178
:103FD0000F910C94671080910906681338C0809186
:103FE0000706909108060E941F1B883C910578F5F2
:103FF00010E21D0FCD17B9F080E28C0F883040F42D
:10400000C77081E001C0880FCA95EAF70E9460106E
:10401000183048F481E09D2F977001C0880F9A9561
:10402000EAF70E946710802F0E94561F802F0E947F
:10403000241F183098F4D77081E001C0880FDA95FA
:10404000EAF7DF91CF911F910F910C946010C77028
:1040500081E001C0880FCA95EAF7F3CFDF91CF91D5
:104060001F910F9108954F925F926F927F928F925E
:104070009F92AF92BF92CF92DF92EF92FF920F93F7
:104080001F93CF93DF9300D000D00F92CDB7DEB750
:104090007C01FC0183819481892B39F01081D180CE
:1040A000812F8D218F3F09F023C60F900F900F9025
:1040B0000F900F90DF91CF911F910F91FF90EF9094
:1040C000DF90CF90BF90AF909F908F907F906F9038
:1040D0005F904F9008950E94700F082F682F89817C
:1040E0009A810E940B10E12FF0E026E0D29EE00DB5
:1040F000F11D112430E3039FE00DF11D1124EE0F9B
:10410000FF1FE455FF4F05911491F70122812223EF
:1041100009F4C7C5C80190568115F0E29F0750F019
:10412000905E811530E1930728F0915C81159F41E5
:1041300008F068C0C8019927AC01445051094432C5
:10414000510518F08B970E9740F4E091FC03F0E0D6
:10415000EF5FFB4F80818F5F80830932F1E61F079D
:1041600009F480C00C3234E6130729F00C3284E4E1
:10417000180709F050C081E080937B04109244013D
:10418000043F9CE5190709F4E6C008F0CAC0093DE0
:10419000FCE51F0709F4DBC00A3D3CE5130709F401
:1041A000E6C0083D8CE5180709F05FC026E241EE45
:1041B00061EEC7010E94CC1F8091E803877009F46B
:1041C00074CFF7018281882309F46FCF8091D005E5
:1041D00082FD6BCF82E00F900F900F900F900F90A9
:1041E000DF91CF911F910F91FF90EF90DF90CF90D3
:1041F000BF90AF909F908F907F906F905F904F9007
:104200000C94AB1B90E080E00F3F110511F008F01B
:1042100093CFC80191CF043FFCE51F0709F49BC071
:1042200090F4093D8CE5180709F491C00A3D9CE51E
:10423000190709F49CC0083DECE51E0709F4B6CF48
:10424000211113C05FC0063FFCE51F0709F48BC0B6
:1042500008F485C0073F8CE5180791F727E245EE83
:1042600066EEA7CF81E0809379041092090622239D
:1042700009F448C004308DE5180708F07BC00B3FF7
:104280009CE5190730F4C80182509C45449708F01A
:1042900076C00E9427189093D0058093CF050031F7
:1042A000FCE51F0709F437C108F0B3C008303CE54E
:1042B000130709F41AC108F087C004309CE51907F8
:1042C00009F401C108F072C00230FCE51F0709F4CF
:1042D000F4C08091CF05826003301C4509F4F0C022
:1042E0006091CF051091D00584E090E00E94C73521
:1042F000612F82E290E00E94C7350E940F1C5CCFC4
:104300001092790406319CE5190709F02DC18091BE
:10431000910369E2811165E380E793E00E947F09E0
:1043200042C0063F9CE51907F1F0C8F0073FFCE5E5
:104330001F0709F493CF99CF063FFCE51F0799F0BB
:1043400070F0073F3CE5130709F488CFDBCF27E285
:1043500045EE65EE2ECF26E241EE60EE2ACF27E253
:1043600045EE64EE26CF26E241EE62EE22CF28E251
:1043700041E0EFCF0236EDE51E0709F48ACF0631A2
:104380003CE5130709F0D6C18091EB038A7A91E0EE
:1043900009F490E09093910369E2811165E380E76D
:1043A00093E00E94A9090E94210F06CF8091CF05BA
:1043B000806106303CE5130709F482C008F487C029
:1043C0008091CF0580627CC08091CF058D7F0C30BD
:1043D0009CE5190709F474C070F48091CF058C60D6
:1043E0000A30FCE51F0709F46BC008F482C0809115
:1043F000CF058E7F65C08091CF05877F0E303CE56D
:10440000130709F45DC008F47EC08091CF058F7E4C
:1044100057C00D3F9CE5190709F479C040F50431F8
:10442000FCE51F0709F48FC058F402313CE513077F
:1044300009F479C008F473C08091CF05837F40C030
:104440000B3F9CE5190709F446C008F04AC0053146
:104450001C4509F045CF8091CF0582FB992790F943
:1044600021E0922790FB82F990FB83F929C001306B
:104470002DE5120709F45DC070F40F3F8CE51807B5
:10448000F1F18091D0058D7F01151D4538F18091A6
:10449000D0058C7F23C00330EDE51E0709F462C010
:1044A00008F45AC002361D4509F01ACF9091CF0585
:1044B000892F8F7E94FF806103C08091CF0581603A
:1044C0008093CF050DCF8091CF058460F9CF809187
:1044D000CF058860F5CF8091D00581608093D005AD
:1044E000FFCE8091D0058260F9CF8091CF058064A6
:1044F000E7CF0E940F1C8091CF058068E1CF8091AB
:10450000D0058360EBCF8091CF058B7FD9CF809191
:10451000D0058E7FE3CF8091CF058F7DD1CF809165
:10452000CF058F7BCDCF0E940F1C8091CF058F7759
:10453000C7CF8091D005982F909591708E7F892B51
:1045400090FB81F9CBCF0E940F1C9091CF05892F52
:1045500097FB87F98058B4CF61E08EE090E00E942D
:10456000C735BECE60E0F9CF8091EB0382720B3C81
:104570009CE5190709F4D4C008F081C0063CFCE5AD
:104580001F0709F4B9C008F063C0043C3CE51307F9
:1045900009F4A8C008F0ABC0033C1C4509F494C062
:1045A000F701828110810181882309F4F6C0812FEF
:1045B000902F0E94700FD82E682F812F902F0E946D
:1045C0000B10E12FF0E026E0029FE00DF11D112419
:1045D00030E3D39EE00DF11D1124EE0FFF1FE455D3
:1045E000FF4F859194910E948C0D8C01882EF701CC
:1045F000D280958092945FE095228091E803877045
:10460000C1F0BD2CDD20B1F0812F807F803421F0FE
:1046100080E2800F883068F08091D00582FD09C06B
:1046200082E00E94AB1B8091E8038770BB24B394A7
:104630008111B12CA12EA2943FE0A322FBE0FA1538
:1046400008F419C1EA2DF0E0ED58F94C0C94183536
:10465000083CFCE51F0709F459C008F452C0093CA6
:104660003CE5130709F457C042E85AE06EE87AE0E7
:104670000A3C1C4509F094CF0E94610A9DCD0F3C75
:10468000ECE51E0709F498CD70F40D3C2CE51207FB
:1046900009F44BC046E65AE064E77AE00E3C1C455C
:1046A00058F381E009C0073D8CE5180740F485E028
:1046B000013D1C4508F080CD0E948C077DCD0E3554
:1046C0001D4509F479CD6CCF80910B0691E08927C7
:1046D00080930B061092520180910A0681608093AC
:1046E0000A066ACD44EC5AE06DEC7AE0C5CF4DEC99
:1046F0005AE064EC7AE0C0CF42EB5AE06BEB7AE030
:10470000BBCF4BEB5AE062EB7AE0B6CF4AE95AE016
:1047100066EA7AE0B1CF46EA5AE06AE97AE0ACCFDD
:104720004EE85AE062E87AE0A7CF44E75AE066E64E
:104730007AE0A2CF0B35FDE51F0759F158F40115BA
:104740003CE51307C9F00F3D1C4509F029CF0E9435
:10475000B71932CD0C359DE51907E9F00D351D452A
:1047600009F01ECF8091D00582FB882780F991E067
:1047700089270E94C71B14CF0E940F1CFFEF24E360
:104780003CE0F15020403040E1F700C000000E94C2
:10479000460981E0EECF80E0ECCF812F902F0E9480
:1047A000E20FD82E0ECF212F2F70C22E107F19F0BE
:1047B000C29420EFC222DD20B9F0CC2069F080E263
:1047C000800F883010F0811009C08091EB03C82A57
:1047D000C092EB030E94210F802F4BC08091EA030F
:1047E000C82AC092EA03F6CF802F0E94241FCC2053
:1047F00009F441C0005E083010F0811004C08C2D17
:104800000E941A0F06C0C0948091EA03C822C09289
:10481000EA030E94210F2FC0312F3F70C32E107F5B
:10482000103219F0C29490EFC922882089F081E0FB
:10483000881609F488C0DD2009F492C0992009F493
:1048400088C0F701858180FFC7CF8F70858381C0C5
:104850002091D00522FF54C0DD2009F44AC0CC20AD
:1048600039F08091EB03C82AC092EB030E94210F1C
:1048700080E00E94561FEA2DE850FF0B349710F499
:104880000E94CC12BB20A9F08091E80380FD11C0EA
:10489000F70112828595859585950E94E41BC701D5
:1048A0000E9433208091E8038595859585950E9427
:1048B000881B85E0F701DE01119601900D928A9523
:1048C000E1F789819A810E94E20F9A81E981F0E003
:1048D00026E0929FE00DF11D112430E3839FE00D4F
:1048E000F11D1124EE0FFF1FE455FF4F85919491A8
:1048F000DCCB80E00E94241FCC2009F4BCCF7FCF0A
:10490000DD20A1F09091EC038C2D892B911003C038
:104910000E946710B0CFE1E09E12FACF22FDABCF2C
:10492000981709F4A8CF8093EC03A5CF911006C087
:104930000E94140F8C2D0E9460109DCFF1E09F16F5
:1049400009F499CFF5CFDD2031F025E0291508F4E1
:1049500092CF8C2DDDCF34E0391508F48CCFEACF1F
:10496000992041F3F9E38F1295C12FEF37EE83E0E1
:10497000215030408040E1F700C000008BC1812F02
:1049800086958695837061F0813009F074CFC801F7
:104990009370D11002C090E080E00E94DE096BCFDE
:1049A000C8019370D11002C090E080E00E94F40929
:1049B00062CF802FDD2029F00E94D40C0E943A1B88
:1049C0005ACF0E94190CFACF812F837009F066C06C
:1049D000D11051CF802F829586958770880F880FD0
:1049E000602F6F70462E512C712C612C082E04C044
:1049F000440C551C661C771C0A94D2F740E050E02A
:104A0000BA0104FF0FC04FE050E060E070E004C066
:104A1000440F551F661F771F8A95D2F74095509512
:104A200060957095812F869586958370823019F1F7
:104A3000D8F40091ED031091EE032091EF03309133
:104A4000F003813069F04429552966297729CB0183
:104A5000BA0160237123822393230E94051C0BCF8C
:104A6000402A512A622A732ACB01BA016429752986
:104A700086299729F2CF442955296629772900915B
:104A8000ED031091EE032091EF033091F003CB0181
:104A9000BA016027712782279327DFCF8695DD2013
:104AA00011F0812F8170882309F4E5CE802F829543
:104AB00086958770880F880F602F6F70462E512C57
:104AC000712C612C082E04C0440C551C661C771CEC
:104AD0000A94D2F740E050E0BA0104FF0FC04FE063
:104AE00050E060E070E004C0440F551F661F771F60
:104AF0008A95D2F74095509560957095812F86954F
:104B000086958370823019F1D8F400918404109155
:104B100085042091860430918704813069F044290E
:104B2000552966297729CB01BA0160237123822395
:104B300093230E947E1B9FCE402A512A622A732A09
:104B4000CB01BA016429752986299729F2CF442916
:104B500055296629772900918404109185042091B4
:104B6000860430918704CB01BA0160277127822720
:104B70009327DFCF1F70DD2029F0812F0E94E41BD7
:104B8000802FC6CE802F0E946010812F0E94881B2C
:104B900072CE802F92EF891609F43FC0981570F0FD
:104BA000E0EF8E16D1F0F1EF8F1691F0DD2009F4D1
:104BB0006CC0911011CE812F8F7133C023EF8216FC
:104BC00099F134EF8312F2CF8091D00582FF3FC07C
:104BD000812F8F71DD20D1F224C0DD20C9F084E067
:104BE000891508F448CE1F7161E070E080E090E024
:104BF00004C0660F771F881F991F1A95D2F700917E
:104C00008404109185042091860430918704ADCFEF
:104C100095E0991508F42FCEE6CF812F8F71D11032
:104C2000B5CF0E94E41B27CE60E070E0CB01DD2011
:104C300009F47FCF1F7161E070E080E090E004C074
:104C4000660F771F881F991F1A95D2F772CFDD2044
:104C500089F01F71812F0E94E41B8091D00582FD95
:104C600007C0E8E01E9FC001112483608093E80321
:104C7000812FD7CF81E00E94AB1BF1E0F91508F03E
:104C8000FACD82E00E94AB1BF6CD992039F0893332
:104C900009F46BCE802F0E94241FEDCD812F8F71E0
:104CA00075CF093281E6180709F42ACB0C3294E655
:104CB000190729F00C32E4E41E0709F0ACCA10927F
:104CC0007B04043F2CE5120709F445CB08F034CBF4
:104CD000093D8CE5180709F43ACB0A3D9CE5190714
:104CE00009F445CB083DECE51E0709F45FCA0ACB81
:104CF00085E0DE01119601900D928A95E1F7F701AA
:104D0000228189819A812111E6C90E94E20F082F30
:104D1000EAC91F93CF93DF938091B503807FA9F4F5
:104D20008091B203882389F08091E703D091B60384
:104D30006091B0037091B103A091B303B091B4033B
:104D4000C62FC72316E0D81304C0DF91CF911F915F
:104D5000089590E0109711F0CF3F19F401968770F5
:104D6000F2CF189F9001199F300D1124F901E954D9
:104D7000FC4F41814713F2CF40814613EFCF428170
:104D80004111ECCF438154814A1B5B0B483C5105D8
:104D900028F78091B5038F7080618093B503F90186
:104DA000E454FC4F80818F708061808380EB93E0BE
:104DB0000E943320DF91CF911F910C94660FAF9228
:104DC000BF92CF92DF92EF92FF920F931F93CF93F8
:104DD000DF93CDB7DEB761970FB6F894DEBF0FBE95
:104DE000CDBF8C0185E0F801DE011D9601900D928A
:104DF0008A95E1F7F801E28080EBA82E83E0B82ED7
:104E00006091B3037091B4036115710509F432C167
:104E10009091B0034091B103892F84238F3F09F40F
:104E200029C120813181C380D480F090B203F60182
:104E3000E61BF70BFF2009F4E8C08091B503582F5B
:104E4000507FE83CF10508F0ABC0511177C0FE2C53
:104E5000431321C092131FC0E1101DC08F708061E9
:104E60008093B503C5010E9433208091B503F801FA
:104E700085838F2D61960FB6F894DEBF0FBECDBF30
:104E8000DF91CF911F910F91FF90EF90DF90CF9026
:104E9000BF90AF900895CD2829F0822F83238F3FB4
:104EA00009F003C180E0F82FF170DF2E80FF3CC0D5
:104EB0008091E7034091B60356E0841315C02D8717
:104EC0003E878D859E850E94C70F292F22952F70C2
:104ED0002230F0F0243018F59F70F1F0F801958140
:104EE000907FD1F4D12C1EC090E0589FF001599FC3
:104EF000F00D1124E954FC4F6181361306C0608126
:104F0000261303C06281E6120FC001968770D5CFC9
:104F10009F7011F0882331F3805E883018F3C80148
:104F20000E943320FD2CA5CFEE2009F4A2CF809162
:104F3000B50381608093B503F12C9BCF431306C06A
:104F4000921304C0F801EE2009F479C0C8010E9450
:104F50003910882309F1EE20F9F08091B5038032F1
:104F600070F02091B0033091B10338872F831986F8
:104F7000DB86CA868C87CE0107960E94332086E0A6
:104F8000F801A0EBB3E001900D928A95E1F70E9441
:104F90008926FF24F3946DCFC8010E943320F9CFF6
:104FA00051110AC080EB93E00E94332086E0F501A6
:104FB00011928A95E9F7C0CF43130FC092130DC029
:104FC000E1100BC0F8018583C8010E94332086E000
:104FD000F50111928A95E9F74CCFC8010E9439106A
:104FE0008823D1F2EE20C1F28091B503803238F2ED
:104FF0002091B0033091B1033A8329831B82DD8273
:10500000CC828E83CE010196B8CFE83CF105F8F64C
:10501000FE2CEE2009F243131FC092131DC0809195
:10502000B50380FD10C0982F907F69F0F80185834B
:10503000903F31F0982F907F905F8F70892B858300
:10504000C8010E94332086E0F801A0EBB3E0019094
:105050000D928A95E1F70DCFC8010E943910811198
:105060008ECF8091B50381608093B503C8010E9403
:105070003320FFCEEE2009F48FCFC8010E943910F3
:10508000F82E882309F488CF86E0F801A0EBB3E07E
:1050900001900D928A95E1F78091B0039091B10350
:1050A0000E94C70F0E948926E4CE81E08E25FBCEA8
:1050B0001F93CF93DF93CDB7DEB767970FB6F89402
:1050C000DEBF0FBECDBF4B8B5C8B6D8B7E8B8F8B12
:1050D00061111092EA031A8A198A85E0FE0173961B
:1050E000DE011D9601900D928A95E1F786E0FE01A2
:1050F0003D96DE01179601900D928A95E1F7CE015B
:1051000007960E94DF26882389F016E08091E70346
:105110009091B603891349C067960FB6F894DEBF25
:105120000FBECDBFDF91CF911F91089586E0FE01A4
:105130003796DE01119601900D928A95E1F78A85E6
:105140009B85892B11F38F81988589238F3FE9F205
:105150002091B60330E0C9010196877099274091EC
:10516000E7034817190671F40E940F1C1092B6034A
:105170001092E70386E0E0EBF3E0DF011D928A95F1
:10518000E9F7C3CF96E0929FD001939FB00D112411
:10519000A954BC4FFE01319601900D929A95E1F70A
:1051A0008093B6030E94660FB0CF819FC001112487
:1051B00089549C4F0E94DF26882309F4ADCF80914B
:1051C000E70390E00196877099278093E7039ECFCD
:1051D0004F925F926F927F928F929F92AF92BF9207
:1051E000FF920F931F93CF93DF93CDB7DEB72C972A
:1051F0000FB6F894DEBF0FBECDBF8E010F5F1F4FFD
:1052000088E0D8011D928A95E9F79DE7892E92E002
:10521000992EB12CA12C66246394712C3BE8432E6B
:1052200032E0532EF40181914F018F3F09F443C0C6
:10523000F894E82FE295EF70F0E021A18F70A301C0
:1052400002C0440F551F8A95E2F7CA01922F982B8E
:1052500091A392A18095892382A30E94300D00C062
:10526000E5E8F2E0F12C31E021912F3F09F47DC017
:10527000A22FA295AF70B0E090968C9190E02F7025
:1052800002C0959587952A95E2F780FD6EC0832F21
:10529000F82A330F4E165F0639F7F40131978081F3
:1052A0008F3F11F00E94320D50EA5A95F1F7F80144
:1052B000EA0DFB1DF0828FEFA81AB80AA4E0AA1627
:1052C000B10409F0AFCF48E050E0B80186E694E0C1
:1052D0000E9483355C01892B41F088E0F801A6E645
:1052E000B4E001900D928A95E1F710916F04A1143A
:1052F000B104E9F181E08093F3030E942E1B9093A7
:10530000F2038093F1038091F1039091F2030E94E4
:105310001F1B059790F0E12FF0E0E059FB4F8091C3
:10532000660480838091670481838091680482830E
:105330008091690483831092F30381E090E0AB28AD
:10534000D1F02C960FB6F894DEBF0FBECDBFDF9123
:10535000CF911F910F91FF90BF90AF909F908F9032
:105360007F906F905F904F90089580E091CF8091F3
:10537000F3038111C8CF0E94A912F82EE0916F04A7
:10538000882309F443C119861A861B861C860E2FB2
:1053900010E000591B4F809161048A3008F0ECC086
:1053A00041E858E1BE01675F7F4FC8010E94651266
:1053B000882309F407C14BE959E1BE01675F7F4FBC
:1053C000C8010E946512882309F4FCC045E358E136
:1053D000BE01675F7F4FC8010E946512882309F4F0
:1053E000F1C046E659E1BE01675F7F4FC8010E94E8
:1053F0006512882309F4E6C01092610480916E045E
:1054000090E044E050E0BE01675F7F4F80599B4FC2
:105410000E94833521E020933704892B09F0C4C012
:10542000F12C80900104082C000C9908AA08BB08F4
:1054300010910401212F30E081E090E02817390716
:105440000CF0D1C06091FD037091FE038091FF03C9
:10545000909100040E9457092B013C01B5E64B16C0
:10546000510461047104FCF08091FC0390E001960A
:1054700062E370E00E9404358093FC038F5F9B4FD2
:10548000FC011082812F113308F080E38F5F80933D
:1054900004010E9473096093FD037093FE038093DF
:1054A000FF0390930004F2E08F169104A104B1046D
:1054B0000CF4A8C0A0E6BAEEA50194010E940A3639
:1054C0004B015C0144E6149F90011124032E000C53
:1054D000440B550B240D351D461D571DA5E0B0E0AE
:1054E0000E940A369B01AC01C501B4010E941D3621
:1054F00049015A0151EF85169104A104B10428F025
:1055000080EF882E912CA12CB12C6091F803709122
:10551000F9038091FA039091FB030E9457092B0134
:105520003C0185E6481651046104710484F00E9430
:1055300073096093F8037093F9038093FA039093CF
:10554000FB03809178048093F7038092F603109117
:10555000F703A091F603A11BBB0BA30192010E94CC
:10556000153624E630E040E050E00E94EB35120FA3
:10557000109378048F2DE5CE8091F4039091F5037C
:105580000E941F1B843F914008F00ACF809137048E
:10559000882309F445CFFE01399684E0DF011D928E
:1055A0008A95E9F710923704E0916E04F0E0E05933
:1055B000FB4F89859A85AB85BC8580839183A283C7
:1055C000B3832FCF809161048F3F31F08F5F809341
:1055D00061048A3008F412CF0E942E1B9093F503C9
:1055E0008093F403D3CFFC01EF5FFB4F4081042E87
:1055F000000C550B660B770B840E951EA61EB71E6E
:1056000001961CCF812C912C54017FCFF0E0E05902
:10561000FB4F00916E0410E000591B4FF89484E09A
:10562000A6E4B4E001900D928A95E1F786E494E057
:105630000E947507809345040E94300DF89484E021
:10564000EAE4F4E0D80101900D928A95E1F70E9416
:10565000300DF89480904E0490904F04A090500428
:10566000B09051048091330490913404A09135049A
:10567000B091360488169906AA06BB06D1F080922E
:10568000330490923404A0923504B09236040E9400
:10569000A91281110EC00E947309861A970AA80ADE
:1056A000B90A8092620490926304A0926404B0925A
:1056B00065040E94300DF89486E0E2E5F4E0ABE08A
:1056C000B6E001900D928A95E1F70E94300D80E0DE
:1056D00038CE1F921FB61F9211248F939F93AF93C2
:1056E000BF938091CA05811113C08091CB05909121
:1056F000CC05A091CD05B091CE054196A11DB11D5F
:105700008093CB059093CC05A093CD05B093CE05A7
:10571000BF91AF919F918F911F901FBE1F901895C1
:10572000CDB7DEB762970FB6F894DEBF0FBECDBF20
:1057300084B7877F84BF0FB6F894A89580916000E6
:10574000886180936000109260000FBE80E890E056
:105750000FB6F89480936100909361000FBE85B7F7
:10576000806885BF85B7806885BF8EE29DE0909395
:105770006F0380936E030E94B8070E948308809194
:10578000E20084608093E20078948091F905882398
:10579000A1F01091E9001F709091EC00892F8170A9
:1057A00090FD80E8182B1092E9008091E80083FDBD
:1057B0000E94241C1F701093E90082E084BD93E0D6
:1057C00095BD9AEF97BD80936E001092620410927F
:1057D000630410926404109265040E94A9128093DD
:1057E00037010E94A91281110E9423338091370151
:1057F0008091370194E0811190E090936F0484E0F0
:10580000891B80936E0484E90E94320D86E60E9413
:10581000320D87E90E94320D86EC0E94320D05E8B8
:1058200012E0D8018D918D018F3F11F00E94320D51
:10583000B2E00B381B07A9F788E0E0E7F4E0DF01EE
:10584000282F1D922A95E9F7E6E6F4E0DF011D9284
:105850008A95E9F790E080E00E94B135893E9E4F3D
:1058600011F00E94B71982E090E00E94A935809360
:10587000B0040E9427189093D0058093CF050E9412
:10588000E828EFE3FCE93197F1F700C000000E943F
:10589000E8280E94A912E4E08111E0E0F0E0E0597C
:1058A000FB4F808181FF08C06FEF7FEF90E080E0C9
:1058B0000E94E5350E94460983E090E00E94A935E8
:1058C000682F70E090E080E00E94051C1092F304C5
:1058D0008FEF9FEF90930D0580930C0590930F052C
:1058E00080930E05909311058093100590931305F6
:1058F00080931205909315058093140590931705D6
:1059000080931605909319058093180590931B05B5
:1059100080931A051092C6049093E0048093DF04EC
:105920009093E2048093E1049093E4048093E30471
:105930009093E6048093E5049093E8048093E70451
:105940009093EA048093E9049093EC048093EB0431
:105950009093EE048093ED0490E080E00E94B135D6
:10596000893E9E4F21F00E94B7190E940C1846E014
:1059700050E06CE170E08BE096E00E949935109267
:105980000A0680910B068C7F11F40E940C180E946D
:10599000A912811102C00E9426330E94A91283E03D
:1059A0008093AB0480E2809311060E94BB316DE0CE
:1059B00070E08FE992E00E943711892BE9F5809120
:1059C000AB0463E070E081FDE7C18CE992E00E94E6
:1059D0003711892B89F56DE070E08CE892E00E9428
:1059E0003711892B49F50E947309605A75418F4F11
:1059F0009F4F6093BE057093BF058093C005909341
:105A0000C105E4E1F6E080E092E0DF019C011D9237
:105A100021503040E1F7F0931B08E0931A088FEF14
:105A20009FEF909313068093120681E08093C30545
:105A30008093C2051092AC0488E391E09093C7056F
:105A40008093C605F2E16F2E8091F905853049F407
:105A50008091F905853009F4A2C10E940F1C0E94B3
:105A6000CC120E94E828F82E81110E947309A0E749
:105A7000B4E0E1EBF4E010E000E0A02EBD908191F5
:105A80008B1509F4E9C18B25D12CCC24C394982F14
:105A90009C2109F4DCC10E94A912BC20882399F042
:105AA000DF82A88681E0B11001C080E089870E9472
:105AB0002E1B8160782F9B878A874F815885698547
:105AC0008B850E945828F801EF54FB4F8081C8262F
:105AD000C082B110A1C186E0809FF001819FF00DCE
