:100000000C94DB070C9422080C9422080C94B02F5B
:100010000C9422080C9422080C9422080C942208B8
:100020000C9422080C9422080C9436160C94751B20
:100030000C940C2D0C9422080C9422080C94220889
:100040000C9422080C9422080C9422080C94220888
:100050000C9422080C9448170C9422080C94220843
:100060000C9422080C9422080C9422080C94220868
:100070000C9422080C9422080C9422080C94220858
:100080000C9422080C9422080C9422080C94220848
:100090000C9422080C9422080C9422080C94220838
:1000A0000C9422080C9422080C94220800010101EF
:1000B0000101010101010202020202020202020325
:1000C00003030303030303040404040404040505F5
:1000D00005050506060606060707070707080808B8
:1000E00008090909090A0A0A0B0B0B0C0C0C0D0D67
:1000F0000D0E0E0E0F0F0F101011111112121313FF
:100100001414151516161717181819191A1A1B1B77
:100110001C1D1D1E1E1F20202122222324242526D3
:1001200026272829292A2B2C2D2D2E2F303132320B
:10013000333435363738393A3B3C3D3E3F40414217
:10014000434445464748494A4C4D4E4F50515354FD
:10015000555658595A5B5D5E5F61626465666869B1
:100160006B6C6D6F7072737577787A7B7D7E808231
:10017000838587888A8C8E8F91939596989A9C9E7A
:10018000A0A2A3A5A7A9ABADAFB1B3B5B7BABCBE8A
:10019000C0C2C4C6C9CBCDCFD1D4D6D8DBDDDFE257
:1001A000E4E7E9EBEEF0F3F5F8FAFDFFFFAA7F557F
:1001B000402223252628292A2C2D2F30323335366C
:1001C000383A3B3D3E4042434547494A4C4E5051E8
:1001D000535557595A5C5E6062646668696B6D6F0F
:1001E00071737577797B7D7F81838587898A8C8E12
:1001F00090929496989A9C9E9FA1A3A5A7A8AAAC1A
:10020000AEAFB1B3B4B6B8B9BBBCBEBFC1C2C3C553
:10021000C6C7C9CACBCCCDCED0D1D2D2D3D4D5D6F5
:10022000D7D7D8D9D9DADADBDBDBDCDCDCDCDCDD28
:10023000DDDDDDDCDCDCDCDCDBDBDBDADAD9D9D80C
:10024000D7D7D6D5D4D3D2D2D1D0CECDCCCBCAC9A4
:10025000C7C6C5C3C2C1BFBEBCBBB9B8B6B4B3B1D3
:10026000AFAEACAAA8A7A5A3A19F9E9C9A9896946E
:1002700092908E8C8A89878583817F7D7B79777543
:1002800073716F6D6B6968666462605E5C5A595722
:10029000555351504E4C4A4947454342403E3D3BE1
:1002A0003A3836353332302F2D2C2A29282625236B
:1002B0002200AF00AE2B0014001A00080015001732
:1002C00000296104001600070009000A00E1001D72
:1002D000001B00060019000500000000000000E3FC
:1002E0000002512C642A00130012000C0018001C9C
:1002F00000340033000F000E000D000B0028723890
:10030000003700360010001100000000000000E679
:100310000003512C442B0014001A0008001500178C
:1003200000E00004001600070009000A00E1001DBB
:10033000001B00060019000500000000000000E39B
:1003400000010001002A00130012000C0018001C1C
:1003500000340033000F000E000D000B002872382F
:1003600000370036001000110000000000000001FE
:10037000530100010035001E021F0220022102224B
:10038000020555000000004A004B0026023900001B
:100390000000004D004E002F020000000000002869
:1003A0000001002C004C00460049005200240223AA
:1003B00002350200004F00510050002702000031BA
:1003C0000030002F0031023002000000000000E683
:1003D00000010001002B003A003B003C003D0038CA
:1003E00000E0003E003F00400041002D00E10042DF
:1003F000004300440045002D02000000000000E31F
:100400000001002C002A006300260025002400259E
:1004100002000000002300220021002E022E000016
:100420000020001F001E0027000000000000000147
:100430005301000100C35C000000000000AB00A9F4
:1004400000C45CCA5CC65CC85CAE00A800C55CCBDE
:100450005CC75CC95CAC00AA00000000000000E3BF
:100460000001002C0000000000F200ED00F100F996
:100470000000000000F000EE00EF00FA00000000B5
:100480000000000000FC00FB000000000000000075
:100490005C0100010000DA0281FFD9F1DB20A4A693
:1004A0002EAF00A0C000A1C800AED580A81FD30009
:1004B000408D1420001E0F0500047F3F1F6432147E
:1004C000643214783C1E1E140A0500000000E0107F
:1004D0000808C8B08080808080808040403C140440
:1004E0000890180408B040800000000000000102DD
:1004F000C4A4FC0000000080000000000000000018
:100500000080C858282A100F000000000000000ECC
:100510000904040404020302010102020408102673
:100520002B320405060000000000000000E010105F
:10053000F000000000000000008080807828081093
:100540002030081020408000000000000003040854
:100550001011F9010101010101000000000000007B
:10056000000110B05055201F0000000000000000E6
:1005700000000001020C10202837021E2020180C59
:10058000141E0100000000000000000000000080B8
:10059000402010909090A0C0808080700814089037
:1005A000101008A478800000000000000000000780
:1005B00008FC0100000000800000010000000000B5
:1005C000000818EA100F0000000000000000000002
:1005D00000031C20203C0F111F03061820203C0C98
:1005E000121E0100000000000000000000000000DA
:1005F0008040202020408000000000E010281020D3
:1006000020201048F0000000000000000000001F43
:1006100020F80201010101010101030000000001B5
:10062000001030D5201F0000000000000000000076
:10063000003F20300C020509121E021C1408102075
:100640002C3201000000000000000000000000004B
:100650000000000000000000E01C02050224040469
:1006600002A91EE0000000000000000000000000E1
:10067000E0100868100804030000000000000002F9
:1006800006827C0300000000000000000000000063
:100690000102040C1010202020283E1C20203E0FB8
:1006A000111F00000000000000000000000000001A
:1006B0000000000000000000E01C02050224040409
:1006C00002A91EE00000000000000000000000E0A1
:1006D00090081860100804030000000000000002E9
:1006E0000E827C03000000000000000000000000FB
:1006F0000102040C1010202020283E1C20203E0F58
:10070000111F0000000000000000000000000000B9
:10071000804040404080000000000000C040408019
:1007200000804080000000000000000000001E214A
:10073000F0040202020203020204040403010000A6
:1007400009018080AB04F8000000000000000000F8
:10075000031C20203C0F111F02061820203808100F
:100760001804040202010000000000000000000064
:10077000804040408000000000000000E0A02040D9
:1007800080C02040800000000000000000003E41CA
:10079000F00402020203020202040402010000004B
:1007A0000400404055827C00000000000000000072
:1007B0003F20300C020509121E04181008102028D2
:1007C0003406020101000000000000C02010D030FB
:1007D000000000000000008080403C1404089018D5
:1007E0000408B0408000000000000003040810115D
:1007F000F90101010101010000000000000080C8B2
:1008000048282A100F00000000000000000000002F
:100810000001020C102028370202040810262B3297
:100820000405060000000000000000E01010F000C9
:1008300000000000000000808040402C140408905C
:10084000180408B0408000000000000304081011E4
:10085000F901010101010100000000000000008019
:10086000C048282A100F204A09100000000000008C
:100870000001020C102028370202040810262B3237
:100880000405060000000000000000000000000059
:100890000000000000BCBCBEBE00BEBEBFBFBFBFEC
:1008A0000000000000000000000000000000000048
:1008B000000000000007070F0F000F0F1F1F1F1F72
:1008C0000000000000000000000000000000000028
:1008D0000000000000C0F0F8F8F8F0F6FBFB38105C
:1008E0000000000000000000000000000000000008
:1008F000000000000001070F1F1F0F0F1F1F0F0632
:1009000000000000000000000000808182838485D8
:10091000868788898A8B8C8D8E8F9091929394A0F4
:10092000A1A2A3A4A5A6A7A8A9AAABACADAEAFB03F
:10093000B1B2B3B4C0C1C2C3C4C5C6C7C8C9CACBAB
:10094000CCCDCECFD0D1D2D3D40005010902A101A4
:1009500085020901A10005091901290815002501D1
:100960009508750181020501093009311581257F3E
:1009700095027508810609381581257F950175084E
:100980008106050C0A38021581257F9501750881BD
:1009900006C0C005010980A101850319012AB7001D
:1009A000150126B700950175108100C0050C0901DD
:1009B000A101850419012AA002150126A0029501B2
:1009C00075108100C005010906A101050719E0297C
:1009D000E7150025019508750181029501750881CB
:1009E000010507190029FF150026FF009506750867
:1009F00081000508190129059505750191029501E8
:100A000075039101C009023B00020100A0FA09042C
:100A10000000010301010009211101000122400031
:100A20000705810308000A09040100010300000012
:100A3000092111010001227B000705820320000A21
:100A400012011001000000085346010001000102DC
:100A500000010C0343006F0072006E00650000008F
:100A6000100366006F006F007300740061006E0079
:100A70000000040309040000000000003E5B4F5B1F
:100A80003E003E6B4F6B3E001C3E7C3E1C00183C03
:100A90007E3C18001C577D571C001C5E7F5E1C00AE
:100AA00000183C180000FFE7C3E7FF0000182418F7
:100AB0000000FFE7DBE7FF0030483A060E0026297A
:100AC00079292600407F05050700407F05253F0066
:100AD0005A3CE73C5A007F3E1C1C0800081C1C3E88
:100AE0007F0014227F2214005F5F005F5F00060911
:100AF0007F017F00006689956A0060606060600029
:100B000094A2FFA2940008047E04080010207E2016
:100B1000100008082A1C0800081C2A0808001E10DB
:100B2000101010000C1E0C1E0C0030383E38300027
:100B3000060E3E0E060000000000000000005F00F0
:100B40000000000700070000147F147F1400242A0F
:100B50007F2A120023130864620036495620500091
:100B6000000807030000001C224100000041221C75
:100B700000002A1C7F1C2A0008083E08080000808C
:100B800070300000080808080800000060600000DD
:100B90002010080402003E5149453E0000427F40BB
:100BA00000007249494946002141494D330018145B
:100BB000127F10002745454539003C4A494931001C
:100BC000412111090700364949493600464949295A
:100BD0001E00000014000000004034000000000867
:100BE00014224100141414141400004122140800AB
:100BF0000201590906003E415D594E007C12111256
:100C00007C007F49494936003E41414122007F41F5
:100C100041413E007F49494941007F0909090100DE
:100C20003E41415173007F0808087F0000417F4129
:100C300000002040413F01007F08142241007F4016
:100C4000404040007F021C027F007F0408107F00AC
:100C50003E4141413E007F09090906003E415121C4
:100C60005E007F09192946002649494932000301DF
:100C70007F0103003F4040403F001F2040201F00F5
:100C80003F4038403F0063140814630003047804B5
:100C900003006159494D4300007F41414100020476
:100CA00008102000004141417F00040201020400BD
:100CB00040404040400000030708000020545478A2
:100CC00040007F28444438003844444428003844D5
:100CD00044287F0038545454180000087E0902004C
:100CE0001824241C78007F080404780000447D4008
:100CF00000002040403D00007F10284400000041DB
:100D00007F4000007C04780478007C0804047800AC
:100D10003844444438007C1824241800182424182B
:100D20007C007C0804040800485454542400040443
:100D30003F4424003C4040207C001C2040201C00FC
:100D40003C4030403C004428102844004C90909097
:100D50007C004464544C440000083641000000000C
:100D60007700000000413608000002010204020082
:100D70003C2623263C00000000000000000000008C
:100D8000000000000000C0E0F0F8F81800C0F0FC1F
:100D9000FEFFFFFFFFFFFFFF7E00000000000000DE
:100DA000000080C0E0E0E0E0E0E0E0E0C0800000C3
:100DB000000080C0E0E0E0E0E0E0E0E0C0800000B3
:100DC00000E0E0C0C0E0E0E0E00000E0E0C0C0E043
:100DD000E0E0E0E0C0800000000080C0E0E0E0E093
:100DE000E0E0E0E0C0800000000000000000000043
:100DF00000000000E0F0F0F0E0ECEEF7F37020000F
:100E00007C7C7C7E007E7E7E7F7F7F000080C0E0D9
:100E10007E5B4F5BFEC00000C000DCD7DEDEDED7AD
:100E2000DC00C00000000000000000000000000026
:100E3000000000000000000000000000000000F8BA
:100E4000FCFEFFE000FFFFFFFFFFFF80FFFFFFFF53
:100E5000FFFFFFFFFF1F0701000000000000000070
:100E600000FFFFFF8100000000000081C3C3C3003A
:100E700000FFFFFF8100000000000081FFFFFF0076
:100E800000FFFFFF01000000000000FFFFFF010066
:100E900000000001FFFFFF0000FFFFFF9D1C1C1C66
:100EA0001C1C1C9DDFDFDF000000000000000000B4
:100EB000000000000F1F3F7F7F7F7F7F3F1E0C00E1
:100EC0001F1F1F3F003F3F3F7F7F7F00307B7F78AA
:100ED00030202030787F3B0003000F7F0F0F0F7F03
:100EE0000F000300000000000000000000000000F0
:100EF00000000000000000000000000000000003EF
:100F00000F1F3F3F3F3F1F1F3F3F7F7F7F3F3F1FE1
:100F10003F7F7F7F7F7C7878381C0F0000000000C7
:100F20000000010307070707070707070301000081
:100F30000000010307070707070707070301000071
:100F40000007070700000000000000070707000077
:100F5000000000000707070000000103070707075C
:100F60000707070703010000000000000000000061
:100F70000000000000000000000000000000000071
:100F80000000000000000000000000000000000061
:100F90000000000000000000000000000000000051
:100FA0000000000000000000000000000000000041
:100FB00000000000000011241FBECFEFDAE0DEBF0A
:100FC000CDBF04B603FE27C08091EC059091ED05DE
:100FD000A091EE05B091EF058730904BA740B04B44
:100FE000D1F41092EC051092ED051092EE051092DE
:100FF000EF0514BE84B7877F84BF0FB6F894A89519
:1010000080916000886180936000109260000FBE44
:10101000E0E0F8E3099511E0A0E0B1E0E0EBFDE6E7
:1010200002C005900D92AE3DB107D9F725E0AEEDB7
:10103000B1E001C01D92AC3EB207E1F70E947326F9
:101040000C949E360C940000E8EDF0E080818E7FD9
:1010500080831092E2001092DA001092E100A0EE7C
:10106000B0E08C9181608C9380818F77808319BCF4
:10107000A7EDB0E08C918E7F8C9380818F7E8083F2
:101080001092B10308952091E4003091E50095E6B7
:10109000A9012091EC00822F817020FF06C0809171
:1010A000E80080FF06C080E008952091E80022FD5E
:1010B0001AC08091BE03882389F0853089F0809121
:1010C000EB0085FD0FC02091E4003091E500421750
:1010D0005307F9F29150E1F684E0089582E0089513
:1010E00083E0089581E00895EF92FF920F931F939C
:1010F000CF937C018B010E944308C82F811117C038
:101100008091E80085FD0BC08091E8008E77809388
:10111000E8000E944308882399F3C82F08C0F7010C
:1011200081917F018093F1000150110949F78C2FC3
:10113000CF911F910F91FF90EF9008958091C00380
:1011400087FF13C08091E80082FF06C08091E8000D
:101150008B778093E80004C08091BE038111F2CFA9
:1011600008958091BE038823D9F38091E80080FF21
:10117000F8CF8091E8008E77ECCF982F9093E9001C
:10118000242F762F50E0891731F07091EC002091D8
:10119000ED005091F00021FD07C09F5F973071F77F
:1011A0008093E90081E008953091EB003E7F309319
:1011B000EB003091ED003D7F3093ED003091EB007E
:1011C00031603093EB007093EC002093ED0050936E
:1011D000F0002091EE0027FDE0CF80E00895CF924F
:1011E000DF92EF92FF920F931F93CF93DF93C8ED9F
:1011F000D0E088818F7E8883E7EDF0E08081816098
:10120000808384E082BF81E08093B10388818E7FF8
:10121000888302EE10E0F80110821092DA0081EE6D
:10122000C82ED12CF601108288818F77888388811F
:101230008068888388818F7D888319BC1092BE0363
:101240001092BF031092BD031092BC0390EEE92EE2
:10125000F12CF70180818B7F808388818160888376
:1012600042E060E080E00E94BD08F60180818E7F50
:101270008083F801808181608083808188608083A1
:10128000F70180818E7F8083888180618883DF91F0
:10129000CF911F910F91FF90EF90DF90CF90089525
:1012A000FC018091C6039091C70386179707A0F0B1
:1012B0006115710529F49091E8009E779093E800FC
:1012C00090E06115710551F4911108C08091E8001A
:1012D00082FF34C080E00895BC01F2CF8091BE034C
:1012E0008823C1F18530C1F18091E80083FD30C0D1
:1012F0008091E80082FDEACF8091E80080FFE1CF95
:101300008091F3002091F200382F6115710519F0DA
:101310002830310558F091E02830310509F090E08F
:101320002091E8002E772093E800CBCF8191809325
:10133000F100615071092F5F3F4FE7CF8091BE03ED
:10134000882341F0853041F08091E80083FFBECFD3
:1013500081E0089582E0089583E00895089580E093
:1013600008958091B30308959C014FB7F89480913C
:101370005E0390915F03A0916003B09161034FBF42
:10138000821B930B08952FB7F89460915E037091C0
:101390005F0380916003909161032FBF08959C01CA
:1013A000FC0132969FEF80E04191461751F09F3F3C
:1013B00019F4411101C0982F8F5F8630A9F79F3F24
:1013C00009F40895290F311D97FD3A95F9016283BB
:1013D000089580912A03811110922A030895809123
:1013E000290390912803892B90912703892B8093BF
:1013F000E00190912A03992391F0892B8093E001D9
:1014000020E082EE91E0FC013191CF0131112F5F9C
:10141000F1E0883E9F07B9F721110E94E909E091A8
:101420005903F0915A03309731F00280F381E02D97
:1014300080EE91E009940895E92FEE0FE90FEE0F89
:101440008E0F982F977086958695869525E0829FBA
:10145000F0011124E85FFC4F50E040E080E0219172
:1014600030E0092E02C0369527950A94E2F72170E4
:101470003327042E01C0220F0A94EAF7822B4F5F14
:101480005F4F4530510559F70895E92FEE0FE90FE9
:10149000EE0F8E0F982F977041E001C0440F9A9580
:1014A000EAF786958695869595E0899FF001112447
:1014B000E85FFC4F30E020E070E05191DF011197D0
:1014C000CB01022E02C0969587950A94E2F78170AF
:1014D00081958527842385278C932F5F3F4F253067
:1014E000310559F70895809107039091D60298131A
:1014F00001C008958F5F8770FACF882341F08095EF
:10150000909129038923809329030C94EF0908956E
:10151000882339F090912903982B909329030C94F8
:10152000EF0908952091CA023091CB02281739079C
:1015300071F09093CB028093CA02E0915903F0912D
:101540005A03309721F00084F185E02D0994089525
:101550002091C8023091C9022817390771F0909381
:10156000C9028093C802E0915903F0915A03309761
:1015700021F00680F781E02D09940895E091590348
:10158000F0915A03309721F00190F081E02D0994F9
:1015900080E00895CF93DF932091D4053091D50555
:1015A0002E5C3340A901460F571F4130524020F0B6
:1015B00060E072E0621B730B4091CC035091CD034D
:1015C000FC01C901620F731FC1E0D0E086179707C5
:1015D00038F05093CD034093CC03DF91CF91089521
:1015E0002491DC01A253BC4F3C91321781F02C9323
:1015F0009C01A5E036952795AA95E1F7DE0102C08A
:10160000AA0FBB1F2A95E2F79D014A2B532B019687
:101610003196DCCF2091CB0336E0839FC0011124AB
:10162000629F800D911D1124811522E0920714F014
:1016300090E080E082539C4F9093D5058093D40531
:101640000895FA01811101C0FB010994E5E5F3E079
:101650001182828184608283089580915003982F43
:101660009E7F61F481708260809350038091530368
:10167000893718F088E78093530308958635B0F3CF
:1016800081708465F1CFAF92BF92DF92EF92FF92AB
:101690000F931F93CF93DF93182F062FE90149373C
:1016A00008F048E7E42FF0E0E455FF4F011110C0C7
:1016B000E4915E2F4E2F4983E8835A83DF91CF91C7
:1016C0001F910F91FF90EF90DF90BF90AF90089522
:1016D000202F30E04491D42EE42EF12C56E0159FBB
:1016E000C0011124EFEFF0E0BF010E94D730812F3D
:1016F00090E0880F991F55E5569FD001579FB00D78
:1017000011248A1B9B0B982F990F890F5F01A21A36
:10171000B30AAE9CD001AF9CB00DBE9CB00D11249D
:101720005B2F089F80011124012F11275F01A01A50
:10173000B10AAE9C8001AF9C100DBE9C100D11240F
:101740005F01A81AB108A29EC001A39E900DB29E8F
:10175000900D1124892F9927E81BF90BEE9DC001EC
:10176000EF9D900DFE9D900D1124E92F62307105C3
:10177000A1F050F46115710509F49DCF6130710538
:1017800081F0EB2F512F97CF6430710569F080F015
:101790006630710509F48FCFF4CFE42F4B2F592F0A
:1017A0008ACFE42F412F87CFEB2F542F492F83CFA0
:1017B0004B2F5D2DE12F7FCF4091A3038D3E59F438
:1017C0008091A40387FF0DC01092A40341110BC0A8
:1017D00010929E0308C08E3E81F48091A4031816D7
:1017E0009CF3442381F08091A5039091A603892B5B
:1017F00009F05AC010929B0308958F3E49F447FFA9
:10180000F0CF1092A3038091A4038111ECCFE0CF1D
:10181000803F19F41416ACF3E4CF9091A503893FEF
:1018200029F41916F4F61092A503DBCF8A3F19F4B8
:1018300097FFD7CFF8CF9091A6038B3F29F497FF5E
:10184000D0CF1092A603CDCF8C3F19F41916CCF34C
:10185000C8CF9FE0980F983090F4815F990B21E0FA
:1018600030E0B90102C0660F771F8A95E2F7CB011D
:1018700080959091A20389238093A203B2CF8D3FDC
:1018800031F48091CF028E7F8093CF02AACF8E3F1A
:1018900021F48091CF028D7FF7CF8F3F09F0A1CF48
:1018A0008091CF028B7FF0CF08958091CF0280FD91
:1018B00016C081FD16C082FD16C080919B0388234F
:1018C000A1F0883280F428E0829FC001112468E2F0
:1018D00070E00E94EB30862F672B39F0089582E08C
:1018E000089584E0089588E0089581E00895809146
:1018F000CF0280FD14C081FD14C082FD16C080910E
:101900009E03882381F0843180F422E3829FC0010A
:10191000112464E170E00E94EB30862F08958CE082
:10192000089589E1089585E0089582E308958D3E44
:1019300031F40E94770C81958093A40308958E3E24
:1019400019F40E94770CF8CF8F3E31F40E94770C87
:1019500081958093A3030895803F19F40E94770C2A
:10196000F8CF893F29F40E94550C8093A503089570
:101970008A3F21F40E94550C8195F7CF8B3F31F4BB
:101980000E94550C81958093A60308958C3F19F40D
:101990000E94550CF8CF9FE0980F983070F4815F4B
:1019A000990B21E030E001C0220F8A95EAF780917F
:1019B000A203822B8093A20308958D3F31F480917E
:1019C000CF0281608093CF0208958E3F21F48091F1
:1019D000CF028260F7CF8F3FB9F78091CF0284604A
:1019E000F1CFF894E82FE295EF70F0E031A1282FC5
:1019F0002F7081E090E001C0880F2A95EAF7982FB8
:101A00009095932391A392A1892B82A37894089512
:101A100090916E0392FF06C0282F28712830F9F4A8
:101A2000877F846093FF06C0282F28712831F1F446
:101A3000877E846120916F0320FF06C0382F3871A4
:101A40003830D9F4877F816021FF06C0282F2871A4
:101A50002831D1F4877E816194FD877E0895282FF7
:101A600024712430F9F68B7F8860DCCF282F247115
:101A7000243101F78B7E8861DDCF382F3171313011
:101A800019F78E7F8860E0CF282F2171213121F74F
:101A90008E7E8861E1CFCF93DF93972F70E026E0B1
:101AA000929F600D711D1124FB0130E3839FE00DB7
:101AB000F11D1124EE0FFF1FEB54FD4FC591D49182
:101AC000CE01C238D105B9F1E8F5C133D10509F429
:101AD00099C050F5C932D10509F48DC0CA32D1057B
:101AE00009F497C0C11521E5D20708F0BFC0C115A0
:101AF00030E5D30708F016C1C83ED10508F09DC0F7
:101B0000C13ED10568F5C83AD10508F089C0C53A8B
:101B1000D10508F0FFC0C130D10511F1209709F4BB
:101B200043C02497E8F440C0C533D10509F45CC034
:101B3000C933D105B9F620916E03237089F080EE88
:101B400090E00EC0C33ED10591F168F4C03ED105CE
:101B5000F9F0C23ED10531F620916E0322FD20C07E
:101B6000DF91CF910895C63ED10561F1C73ED10501
:101B700081F1C43ED10509F0B5CF20916F0321FF5B
:101B8000EFCF80916E0384FD0FC087EE90E0E8CF29
:101B900020916E0320FD12C130916F0330FFE0CF22
:101BA00083EE90E024FFDCCF90E080E0D9CF20915D
:101BB0006E0322FD06C130916F0330FDC0CF24FFBC
:101BC000CFCFF2CF20916E0323FFCACF24FDECCFFD
:101BD000DCCF20916E0323FDF7C030916F0331FFFE
:101BE000EECF84EE90E0BCCF20916E0325FFB8CFFE
:101BF00089E290E0B5CF20916E0325FFB1CF85E358
:101C000090E0AECF20916E0326FFAACF8AE290E04B
:101C1000A7CF20916E0326FFA3CF81E390E0A0CF52
:101C2000CF3BD10508F6C85AD0E0CC0FDD1FC75610
:101C3000DE4F88819981946493CFC11520E2D20749
:101C400060F4C11531E0D30708F08ACFCE0190656A
:101C5000CD3ED10508F084CFA7CFC11580E4D807C9
:101C600008F4A2CFCE019F70906A7ACFC11595E596
:101C7000D90710F5C11524E5D20708F088C0C115B1
:101C800033E5D30708F06FC0C11582E5D80708F423
:101C900065C09E012370332781E090E002C0880F69
:101CA000991F2A95E2F7C695C69520E2C29FE001EA
:101CB00011248C2B9D2B50C0C11599E5D907A0F498
:101CC000C11528E5D20708F067C0C11536E5D3076E
:101CD00008F06ACF8C2F0E94080D90E0982F88277B
:101CE00088279F7190623CCFC1158AE5D80708F418
:101CF00058C0CE0190568115904208F055CF8D2FD7
:101D00008F710E94080D90E0982F882788279F7177
:101D10008C2BE8CFC55AD0E0CA56DE4F888190E0C0
:101D200090641ECF9E01E4E036952795EA95E1F791
:101D300023708C2F86958695837030E2839FC00137
:101D40001124922BC37021E030E002C0220F331F18
:101D5000CA95E2F7822B932B9C6802CF9C2F882791
:101D6000816F906AFDCE9E012370332781E090E061
:101D700002C0880F991F2A95E2F7C695C69530E2F2
:101D8000C39FE00111248C2B9D2B9A68E9CE9C2FD8
:101D90008827846F906AE4CE9C2F8827806F906A92
:101DA000DFCE8C2F8F700E94080D34E0D695C7953A
:101DB0003A95E1F7CF709C2F9069D2CE89E390E0FD
:101DC000CFCE82EE90E0CCCE86EE90E0C9CEBF9230
:101DD000CF92DF92EF92FF920F931F93CF93DF93F7
:101DE0008C01C0906A03D0906B03E0906C03F0907C
:101DF0006D0380912B0390912C03A0912D03B09142
:101E00002E03C82AD92AEA2AFB2ACFE1D0E0BC2E29
:101E1000D701C6010C2E04C0B695A7959795879556
:101E20000A94D2F780FD0EC0219788F7B12C8B2D34
:101E3000DF91CF911F910F91FF90EF90DF90CF90A6
:101E4000BF900895B8018C2F0E944B0D019761F34C
:101E5000EECFCF93DF93EC010E94E70EBE01DF913E
:101E6000CF910C944B0D0E94290F292F2F70929522
:101E70009F7092509E3078F4E92FF0E0E056F94CD4
:101E80000C94FF30803F19F020F4883E20F481E06C
:101E90000895843FE1F380E00895883EC0F3813FD8
:101EA000D1F7F5CF822F8695869586950895CF93A5
:101EB000DF93C091D405D091D5058A30C1F420912B
:101EC000CB03CE018E5C9340622F70E00E94D7302E
:101ED000281B822F66E00E94BD30C82FC15018F425
:101EE000DF91CF91089580E20E94570FF7CF8D3098
:101EF000E9F4CE5CD3402091CB03622F70E0CE0199
:101F00000E94D730281B822F9E01280F311D2115DA
:101F1000324018F080E0D0E0C0E0C80FD11DC253BD
:101F2000DC4FD093D505C093D405DACF96E0FE01FF
:101F3000AEECB5E001900D929A95E1F7803E08F481
:101F400058C086E0FE0111928A95E9F7C091D40548
:101F5000D091D50546E050E0BE018EEC95E00E94A0
:101F6000BD319E012E5C3340892B41F1C90145E012
:101F7000969587954A95E1F741E050E0BA0102C095
:101F8000660F771F8A95E2F7CB016091CC037091C1
:101F9000CD03862B972BB9016B5F7F4FE5E07695DC
:101FA0006795EA95E1F702C0440F551F6A95E2F77D
:101FB000842B952B9093CD038093CC032A5F3F4FC6
:101FC0004091CB03642F70E0C9010E94D730481BB9
:101FD000463010F4240F311D211572E0370710F040
:101FE00030E020E022533C4F3093D5052093D405B8
:101FF00077CFF6E08F9FB00111246A58754F46E005
:1020000050E0CE010E94A731A1CF0F931F93CF9331
:10201000DF93EC01FC0101900020E9F78F010150F2
:102020001109C017D10728F0DF91CF911F910F91AF
:10203000089589910E94570FF4CFCF92DF92EF92CB
:10204000FF920F931F93CF93DF936C017B0164E6A4
:1020500070E088E70E94172EEC0197FD12C010E097
:1020600000E0F601E00FF11F849164E670E00E9449
:10207000732EEC01892B29F40F5F1F4F0E151F05DE
:1020800081F70E94F62ECE01DF91CF911F910F9123
:10209000FF90EF90DF90CF900895809199039091F9
:1020A0009A03911103C091E089270895882369F06C
:1020B00062E070E083EB92E00E941D10892B19F022
:1020C0008091990308951092990380919903EBCF21
:1020D000CF93C091990380919A038823D1F00E94F5
:1020E000C309605A75418F4F9F4F6093950370935A
:1020F00096038093970390939803C11108C062E000
:1021000070E081EB92E00E941D10892B29F0C091B4
:1021100099038C2FCF91089581E080939903F7CF95
:10212000CF93DF9300D00F92CDB7DEB79091BE036F
:10213000943019F589837B836A8382E08093E90078
:102140008FEF9091E800815095FD06C095ED9A952E
:10215000F1F700008111F5CF8091E80085FF0DC0F7
:1021600050E040E063E070E0CE0101960E94740808
:102170008091E8008E778093E8000F900F900F9089
:10218000DF91CF910895BC0184E00C949010BC01C4
:1021900083E00C9490109C0182E08093E9009FEF13
:1021A0008091E800915085FD06C085ED8A95F1F794
:1021B00000009111F5CF8091E80085FF0CC050E040
:1021C00040E066E070E0C9010E9474088091E80078
:1021D0008E778093E8000895CF93DF93EC0181E040
:1021E0008093E9008FEF9091E800815095FD06C043
:1021F00095ED9A95F1F700008111F5CF8091E800F7
:1022000085FF14C050E040E068E070E0CE010E941D
:1022100074088091E8008E778093E80088E0FE01E2
:10222000A4EBB3E001900D928A95E1F7DF91CF9195
:1022300008958091500380FD0AC0E0EFF1E0118223
:1022400010821282339652E0E134F507C1F7539AB7
:102250003BB1377F2BB128604FB7F89480EF91E006
:10226000FC015191CF0168E02BB9000000C057FF7D
:102270003BB9550F000000C000C000C03BB900C012
:102280006A9591F7F2E081349F0751F74FBF8FE5D0
:1022900094E00197F1F700C000000895EF92FF92DB
:1022A0001F93CF93DF93EC0180EFE82E81E0F82EAF
:1022B00010E08C8197014091530360915203810F8C
:1022C0000E94430B175F83E0E80EF11C133F89F770
:1022D0000E9419119A818C8190FF08C08F5F8C83B6
:1022E000DF91CF911F91FF90EF9008958150F7CF2C
:1022F0009F92AF92BF92CF92DF92EF92FF920F9395
:102300001F93CF93DF93EC018A81BB24BA9480FDA5
:1023100002C0BB24B3948C81811108C081E0B81243
:102320005DC08AE18093ED0181E08C8320EFE22E95
:1023300021E0F22E10E000E03BE1932EF701118244
:102340001082128294E0C92ED12CA12C8091ED0133
:102350008A0D8C310CF445C0692D0E94C930892F3B
:10236000082E000C990B8017910791F4809153036C
:102370008C9DA0018D9D500D112455954795559527
:102380004795970160915203809151030E94430B3E
:10239000AB0CF1E0CF1AD108C9F60F5F1F4F83E0F5
:1023A000E80EF11C0B31110549F60E9419118091BC
:1023B000ED0191E0B9121EC0811117C08AE180932E
:1023C000ED011C82DF91CF911F910F91FF90EF9053
:1023D000DF90CF90BF90AF909F9008951092ED0145
:1023E000A3CF87FFBDCF855EBBCF81508093ED012A
:1023F000BC82E8CF90E00196B8010E94EB30809358
:10240000ED018C83DFCFEF92FF920F931F93CF9359
:10241000DF937C01FC018481811109C081E0848308
:102420001092EE0192E09093100180930F01C0EFA3
:10243000D1E0FE01118210821282339682E0E134F3
:10244000F807C1F710E000E08091EE01082E000CC3
:10245000990B08171907BCF180911001082E000C88
:10246000990B801791077CF19E0140915303609175
:102470005203809151030E94430B0F5F1F4F23961D
:102480000B31110509F70E94191180910F019091EC
:10249000EE01980F9093EE0120911001280F2093E8
:1024A0001001121614F49A313CF0819580930F01BB
:1024B000813011F4F7011482DF91CF911F910F91B8
:1024C000FF90EF900895198218821A82D6CF8F92CA
:1024D0009F92AF92BF92CF92DF92EF92FF920F93B3
:1024E0001F93CF93DF93EC014C81042F10E09801F0
:1024F000D8010E94F8349B01AC010E94C3344B0107
:102500005C01E0E2F0E0E01BF10BA5E5B0E0AC011E
:102510009B010E94C3346B017C019F01DF010E947B
:1025200005319B01AC010E94CE349B01AC01280D0A
:10253000391D4A1D5B1DC701B6010E94D634F22E1B
:10254000822F90E039E23F15D8F143E0249F9001BB
:10255000112435952795122F109590EFC92E91E0F3
:10256000D92E00E085E5E82EEF188E2D01FD8F2D88
:102570009601412F609152030E94430B0F5F53E07D
:10258000C50ED11C0B3189F70E9419119C8181E085
:10259000992319F0903219F48FEF809311018091F3
:1025A0001101890F8C83DF91CF911F910F91FF90C3
:1025B000EF90DF90CF90BF90AF909F908F90089555
:1025C00025E530E0A901481B590BCA019A01220FE9
:1025D000331F280F391F37FFBCCF2F5F3F4FB9CFB5
:1025E000EF92FF920F931F93CF93DF938C01C0EF75
:1025F000D1E0F12CE12CF80194816091520380919B
:102600005103FDE0EF16F104FCF49923F9F09E016B
:10261000409153030E94430B2FEFE21AF20A2396D4
:102620008BE1E816F10439F70E941911F801848151
:1026300090E00196817099278483DF91CF911F915B
:102640000F91FF90EF900895992309F39E0140E0C8
:10265000E1CF9091500390FF0CC0E0EFF1E0818357
:1026600060834283339692E0E134F907C1F70C941A
:10267000191108950F931F93CF93DF9300D00F92FA
:10268000CDB7DEB78C018091EF0181110AC09E01A8
:102690002F5F3F4F48E76FEF0E94430B8A81809383
:1026A000EF01F8016481613069F08091EF0140E051
:1026B000662361F040E0623011F44091EF0180E068
:1026C00060E004C06091EF0140E080E00E942913C7
:1026D000F801848190E0019663E070E00E94EB30A5
:1026E00084830F900F900F90DF91CF911F910F91E6
:1026F0000895CF93DF9300D00F92CDB7DEB79091BE
:10270000500390FF0AC09E012F5F3F4F0E94430B72
:102710004B8169818A810E9429130F900F900F903D
:10272000DF91CF910895CF93DF93EC01EC81F0E03E
:10273000EF54FE4F4491E0E5F3E0628181810E9415
:1027400079138C818F5F8C83DF91CF910895CF9324
:10275000DF93EC01E0E5F3E0438162818C810E942C
:1027600079138C818F5F8C83DF91CF910895809155
:10277000EC01811111C08091D80080618093D80054
:102780008AE18A95F1F700C09091D900892F817074
:1027900090FF82E08093EC0181E09091EC01913018
:1027A00009F080E008954F925F926F927F928F922E
:1027B0009F92AF92BF92CF92DF92EF92FF920F93D0
:1027C0001F93CF93DF93FC016280448081E0848378
:1027D000E1EBF1E07490E0E3F2E0E491C1E4D2E0F7
:1027E00030EFE32E31E0F32E48ECC42E42E0D42E3D
:1027F00052E0A52EBB24B39488248A94912C5524AE
:102800005A94E7190E2F10E082E0861530F080917F
:1028100051038883809152038983411021C01B8218
:102820001A8297014A81698188810E94430B25960B
:1028300083E0E80EF11CCC16DD0631F7DF91CF9175
:102840001F910F91FF90EF90DF90CF90BF90AF90CE
:102850009F908F907F906F905F904F900C94191184
:102860008B818823E9F081508B83859DC0011124E1
:102870006C8170E00E94D730FB01FF27EF54FE4FC0
:102880008491E82FE719E59DC0011124B8010E9449
:10289000D73080915303689FB00111247A83C1CF50
:1028A0000E94973120915303269521582A9DA0011B
:1028B0002B9D500D1124452F5527841795070CF09B
:1028C000B0CF82E0861588F40E949731B4010E944F
:1028D000EB3088830E949731209152032695622F16
:1028E00070E00E94EB30280F29831A8280915303F5
:1028F000893C20F088EC8C838B8393CF8431D8F78C
:1029000084E1F9CFCF9384E090E00E945C34C82F3B
:1029100081E290E00E945C34982F8C2FCF91089533
:10292000CF92DF92EF92FF926B017C010E942D0B00
:10293000B701A60188E090E0FF90EF90DF90CF9084
:102940000C9482343F924F925F926F927F928F925B
:102950009F92AF92BF92CF92DF92EF92FF920F932E
:102960001F93CF93DF9300D00F92CDB7DEB7182F10
:10297000562E042F422E9091500390FF3BC0E92F1A
:10298000E695AE2FB0E0A559BE4F8C9180935503CC
:102990009E7F923009F043C09E012F5F3F4F812FF1
:1029A0000E94430B4B8169818A810E942913809187
:1029B0005103811308C080915203851104C0809196
:1029C0005303801729F08091570382608093570347
:1029D000109351035092520300935303442051F03B
:1029E0006091500370915103809152039091530371
:1029F0000E9490140F900F900F90DF91CF911F9134
:102A00000F91FF90EF90DF90CF90BF90AF909F908D
:102A10008F907F906F905F904F903F90089582309D
:102A200019F400915303C3CF863019F41091510368
:102A3000BECF8930D9F3893109F0B9CFE9518E2F52
:102A40008170382EE695F0E0E455FE4FA590B490E5
:102A5000BB2480EFE82E81E0F82E91E4892E92E0ED
:102A6000992ED12CC12C2BE1622E712CC601B30101
:102A70000E94D730812F311011C0860F9701402F4F
:102A8000652D0E94430BCA0CDB1C83E0E80EF11C91
:102A90008E149F0459F70E94191189CF861BEECF1F
:102AA000E0E5F3E0438121E1421B08F440E021E04E
:102AB000628181810C94A214E0E5F3E0438121E17D
:102AC000420F08F44FEF21E0628181810C94A2143F
:102AD000E0E5F3E0628121E1621B08F460E021E0BF
:102AE000438181810C94A214E0E5F3E0628121E14D
:102AF000620F08F46FEF21E0438181810C94A214EE
:102B0000E0E5F3E0818121E0438162818A500C9409
:102B1000A214E0E5F3E0818121E043816281865FD8
:102B20000C94A21480915403882319F0815080934F
:102B3000540360915003709151038091520390911E
:102B400053030C94901480915403833018F48F5FD6
:102B5000809354036091500370915103809152030C
:102B6000909153030C949014E0E5F3E083E08083AC
:102B700011828FEF828388E783831482A5E5B3E017
:102B800012968C911297836012968C93608171815A
:102B9000828193810C9490146BEE7EEF90E080E044
:102BA0000E948E3460E082E090E00E94703460E029
:102BB00083E090E00E94703410922B0310922C035B
:102BC00010922D0310922E0360E084E090E00E94AA
:102BD000703460E081E290E00E94703460E085E053
:102BE00090E00E94703460E086E090E00E947034D3
:102BF0006FEF87E090E00E94703440E050E0BA014F
:102C000088E090E00E94823460E08DE090E00E94D5
:102C1000703440E050E0BA0188E190E00E948234D4
:102C200060E087E190E00E94703440E050E0BA013B
:102C30008CE190E00E94823460E080E290E00E94AB
:102C4000703440E050E0BA0188E190E00E948234A4
:102C500040E050E0BA018FE090E00E94823440E012
:102C600050E0BA0183E190E00C9482341F920F92FD
:102C70000FB60F9211242F933F934F935F936F934F
:102C80007F938F939F93AF93BF93EF93FF93809125
:102C9000E10082FF09C08091E20082FF05C08091BF
:102CA000E1008B7F8093E1008091DA0080FF24C0F7
:102CB0008091D80080FF20C08091DA008E7F8093C1
:102CC000DA008091D90080FF9BC080E189BD82E15C
:102CD00089BD09B400FEFDCF81E08093BE038091E1
:102CE000B103811109C00E9424080E94EF0880915D
:102CF000E20084608093E2008091E10080FF17C0D1
:102D00008091E20080FF13C08091E2008E7F80936B
:102D1000E2008091E20080618093E2008091D8001F
:102D200080628093D80019BC85E08093BE038091B7
:102D3000E10084FF29C08091E20084FF25C080E18A
:102D400089BD82E189BD89B5982F917080FFFBCF45
:102D50008091D8008F7D8093D8008091E1008F7E94
:102D60008093E1008091E2008F7E8093E200809169
:102D7000E20081608093E2008091BF03882309F420
:102D800045C084E08093BE038091E10083FF27C0AB
:102D90008091E20083FF23C08091E100877F8093D0
:102DA000E10082E08093BE031092BF038091E100B6
:102DB0008E7F8093E1008091E2008E7F8093E2001D
:102DC0008091E20080618093E20042E060E080E078
:102DD0000E94BD088091F00088608093F000FF9110
:102DE000EF91BF91AF919F918F917F916F915F9183
:102DF0004F913F912F910F900FBE0F901F901895FC
:102E000019BC1092BE031092B10376CF8091E300FB
:102E100087FD93E09093BE03B7CF80915803089548
:102E20000F931F930E94B713882321F01F910F91D6
:102E30000C94C3090E94C30900912F031091300321
:102E40002091310330913203600F711F821F931F55
:102E50001F910F910895CF92DF92EF92FF926B0135
:102E60007C010E94B71381110EC00E94C309C61ACB
:102E7000D70AE80AF90AC0922F03D0923003E092F1
:102E80003103F0923203FF90EF90DF90CF900895DE
:102E900078941F921FB61F9211248F939F93AF9324
:102EA000BF9380915E0390915F03A0916003B09106
:102EB00061030196A11DB11D80935E0390935F0392
:102EC000A0936003B0936103BF91AF919F918F91E5
:102ED0001F901FBE1F9018952FB7F89480915E0326
:102EE00090915F03A0916003B09161032FBF08959B
:102EF0000E94B71381110C946C170E941017CB011C
:102F0000089560915003669570E04BE050E084E0D6
:102F100091E00E94B031892B19F481E0809356032F
:102F20000E94781790934B0380934A038091570334
:102F300084608093570308959091500390FF3BC0A5
:102F4000917081112EC0926090935003809157032D
:102F5000816080935703662351F060915003709114
:102F6000510380915203909153030E9490146091F9
:102F70005003669570E04BE050E084E091E00E94E1
:102F8000B031892BA9F00E94260B81E080934D037C
:102F900020E04091530360915203809151030C94BF
:102FA000A2148B3210F09465CFCF880F982BCCCF22
:102FB0000E948117EACF0895809150038695815031
:102FC00009F48AE261E00C949C1780915003869585
:102FD0008F5F8B3208F081E061E00C949C17909138
:102FE000500390FF07C09695981720F0961710F49D
:102FF0000C94E51761E00C949C170E946C179C01DF
:103000009091A3038091A403982B21F03093A00307
:1030100020939F039091A5038091A603982B21F004
:1030200030939D0320939C03E0915903F0915A0340
:10303000309749F082E08093A1030480F581E02D70
:1030400081EA93E00994089590E080E00E94A80A44
:1030500090E080E00E94920A1092280310922703C9
:103060000E94EF0986E0E1EAF3E0DF011D928A9514
:10307000E9F710929E0310929B031092CF020C94DA
:10308000FD1760936A0370936B0380936C039093B6
:103090006D030C9424180F931F9341E050E060E0FF
:1030A00070E004C0440F551F661F771F8A95D2F742
:1030B000CB01BA01609570958095909500916A0357
:1030C00010916B0320916C0330916D036023712389
:1030D000822393231F910F910C9441189091260302
:1030E0008095892380932603282F277071F4282F39
:1030F000082E000C330B9217130639F08595859531
:1031000085950E944B181092260308950F931F93E4
:1031100041E050E060E070E004C0440F551F661FBE
:10312000771F8A95D2F780916A0390916B03A091E3
:103130006C03B0916D038A019B01082B192B2A2B7C
:103140003B2BC901B8011F910F910C94411860935A
:103150002B0370932C0380932D0390932E030C94D8
:10316000241810922903E2EEF1E086E0DF011D92BF
:103170008A95E9F70C9424181F93CF93DF93CDB76A
:10318000DEB7AA970FB6F894DEBF0FBECDBF80ECB6
:1031900093E02091F100FC012193CF01F3E0883C02
:1031A0009F07B9F78091C103833009F46FC0B8F469
:1031B000813009F446C0823009F4B0C08091E80043
:1031C00083FF7BC28091C0039091C1039A3008F0C5
:1031D00074C2E92FF0E0E255F94C0C94FF308A30CC
:1031E00009F48BC08B3009F46EC0893039F78091B7
:1031F000C003813219F78091C4039091C5030297EF
:10320000E8F68091E800877F8093E8008091E800ED
:1032100082FF37C09091F3008091F200029729F469
:103220008091F1008B7F813021F48091F1008093B7
:10323000B3038091E8008B778093E8000E949E089A
:10324000BDCF8091C003813A09F0B8CF8091E800EA
:10325000877F8093E8008091C4039091C503892BF8
:1032600061F468E084EB93E070E00E945009809183
:10327000E8008B778093E800A1CF60E090E080E0E9
:10328000F3CF8091BE038111C1CF98CF8091C0034D
:10329000813A09F093CF8091C4039091C503892BA3
:1032A00009F08CCF8091E800877F8093E8008091BF
:1032B000E80080FFFCCF809125018093F100809190
:1032C000E8008E77B9CF8091C003813209F076CFC4
:1032D0008091C4039091C503892B09F06FCF809131
:1032E000E800877F8093E8000E949E088091C203D7
:1032F000809325010E94B11861CF8091C003813273
:1033000009F05CCF8091E800877F8093E8000E94FD
:103310009E088091C3038093B20350CF8091C00375
:10332000813A09F04BCF8091E800877F8093E800D5
:103330008091E80080FFFCCF8091B203BECF80383F
:1033400099F0823809F0B9C18091C4038F70873039
:1033500008F0B3C18093E9008091EB0085FB8827DA
:1033600080F91092E90006C08091BC039091BD03E2
:10337000911182609091E800977F9093E80080938C
:10338000F1001092F1008091E8008E7792C18823BD
:1033900009F480C1823009F090C18091C20381118B
:1033A00083C18091C4038F702FEF280F263008F05F
:1033B00084C18093E9002091EB0020FF75C1933018
:1033C00031F48091EB0080628093EB006DC19091AD
:1033D000EB0090619093EB0021E030E001C0220F00
:1033E0008A95EAF72093EA001092EA008091EB00B8
:1033F0008860EACF811161C11091C2031F7780916B
:10340000E3008078812B8093E3008091E800877F40
:103410008093E8000E949E088091E80080FFFCCF26
:103420008091E30080688093E30082E0111183E0E3
:103430008093BE0342C18058823008F03EC1809123
:10344000C2039091C3038C3D23E09207A1F583E072
:103450008A838AE289834FB7F894DE01139620E0CD
:103460003EE051E2E32FF0E050935700E49120FF5B
:1034700003C0E295EF703F5FEF708E2F90E0EA306F
:10348000C0F0C7968D939D932F5F243159F74FBF9E
:103490008091E800877F8093E8006AE270E0CE01C7
:1034A00001960E9450098091E8008B778093E80094
:1034B00004C1C096E7CF4091C4035091C503292FA2
:1034C00033272330310509F444C078F52130310524
:1034D00009F46FC08BE390E0E5E0FAE022303105BB
:1034E00009F0EBC02091E800277F2093E8002091AD
:1034F000C6033091C7038217930708F49C0140E08C
:103500002115310509F064C0411162C08091E800C5
:1035100082FDC9CF8091BE03882329F2853019F23C
:103520008091E80083FFF2CFBECF21323105A9F1AF
:103530002232310509F0C1C04115510509F443C0DB
:103540004130510509F0B9C08BE790E0EAE4F9E0B9
:10355000C9CF992781309105C1F0009759F00297A2
:1035600009F0ABC0E2E5FAE0E4918E2F90E0E2E5ED
:10357000FAE007C0E2E7FAE0E4918E2F90E0E2E79C
:10358000FAE0009709F499C0ADCFE0E6FAE0E491E3
:103590008E2F90E0E0E6FAE0F4CF4115510571F08E
:1035A0004130510509F089C089E090E0E0E3FAE09C
:1035B00099CF82E190E0E0E4FAE094CF89E090E0F6
:1035C000E7E1FAE08FCF80E490E0E5ECF9E08ACF24
:1035D0008091BE03882309F466CF853009F463CF58
:1035E0008091E80083FD5FCF8091E80082FD8ECF5F
:1035F0008091E80080FF84CF9091F3008091F200E9
:103600002115310519F08830910550F041E00897F7
:1036100009F040E08091E8008E778093E80070CF59
:1036200044914093F1003196215031090196E8CF41
:10363000803809F042C08091E800877F8093E800DD
:103640008091BF038093F1009ECE811136C010910E
:10365000C203123090F58091E800877F8093E800E4
:103660001093BF030E949E08112311F084E005C04F
:103670008091E30087FDFACF81E08093BE0342E0B2
:1036800061EC81E00E94BD0842E261EC82E00E94B0
:10369000BD0813C08091C203813079F481E093307A
:1036A00009F080E08093BD031092E9008091E8006A
:1036B000877F8093E8000E949E088091E80083FF46
:1036C0000AC08091E800877F8093E8008091EB003A
:1036D00080628093EB00AA960FB6F894DEBF0FBE0F
:1036E000CDBFDF91CF911F9108951F920F920FB61A
:1036F0000F9211242F933F934F935F936F937F9378
:103700008F939F93AF93BF93CF93DF93EF93FF93E9
:10371000D091E900DF708091EC00C82FC17080FD6E
:10372000C0E81092E9008091F000877F8093F0005C
:1037300078940E94BC181092E9008091F000886093
:103740008093F000CD2BCF70C093E900FF91EF91F3
:10375000DF91CF91BF91AF919F918F917F916F91A9
:103760005F914F913F912F910F900FBE0F901F903F
:1037700018958823F1F19CEF980F913A78F4E2EED6
:10378000F1E028EE31E09191891303C0DF01119738
:103790001C922E173F07B9F70C94EF0990E2980F8F
:1037A000983088F4877021E030E0A90102C0440F0E
:1037B000551F8A95E2F7CA018095909129038923C4
:1037C00080932903E9CF9BE5980F933020F490E094
:1037D00080E00C94A80A98E5980F973120F490E0C7
:1037E00080E00C94920A8D3E20F00E94DC0B0C9439
:1037F000FD170895CF93C82F882309F456C08CEF86
:103800008C0F813AF8F4E2EEF1E088EE91E0DF010E
:103810002D91C21759F08A179B07D1F76C2F80EEB4
:1038200091E00E94CF09CF910C94EF092191C2132E
:1038300003C0DF0111971C928E179F07B9F70E94F2
:10384000EF09ECCF80E28C0F883068F4C77021E07C
:1038500030E001C0220FCA95EAF780912903822B3C
:1038600080932903E0CFEBE5EC0FE33040F4F0E088
:10387000EA56FE4F808190E0CF910C94A80AE8E5CB
:10388000EC0FE73150F4F0E0EE0FFF1FE756FE4F6C
:1038900080819181CF910C94920ACD3E30F08C2F93
:1038A0000E94970CCF910C94FD17CF9108950F9320
:1038B0001F93CF93DF93C62FD42F022FFC01828159
:1038C0008823A1F06093CA030E946C179093C903E8
:1038D0008093C803C77081E001C0880FCA95EAF7DA
:1038E000DF91CF911F910F910C94880A8091CA03A8
:1038F000681338C08091C8039091C9030E94B4092D
:10390000883C910578F510E21D0FCD17B9F080E2E3
:103910008C0F883040F4C77081E001C0880FCA95D1
:10392000EAF70E947D0A183048F481E09D2F9770D5
:1039300001C0880F9A95EAF70E94880A802F0E949A
:10394000FA1B802F0E94B91B183098F4D77081E0C1
:1039500001C0880FDA95EAF7DF91CF911F910F919F
:103960000C947D0AC77081E001C0880FCA95EAF700
:10397000F3CFDF91CF911F910F9108954F925F92F6
:103980006F927F928F929F92AF92BF92CF92DF926F
:10399000EF92FF920F931F93CF93DF9300D000D04D
:1039A0000F92CDB7DEB77C01FC0183819481892B16
:1039B00039F01081D180812F8D218F3F09F075C59D
:1039C0000F900F900F900F900F90DF91CF911F915C
:1039D0000F91FF90EF90DF90CF90BF90AF909F90AE
:1039E0008F907F906F905F904F9008950E94E70EA8
:1039F000082F682F89819A810E94450AE12FF0E003
:103A000026E0D29EE00DF11D112430E3039FE00D6E
:103A1000F11D1124EE0FFF1FEB54FD4F0591149182
:103A2000F7018281882309F460C0C801905681158E
:103A3000F0E29F0750F0905E811520E1920728F098
:103A4000915C81159F4108F0B1C0C80199279C0184
:103A5000245031092432310520F08B970E9708F05D
:103A600044C08091CC029091CD020097C1F10E9498
:103A7000B409C0905803D12C9C0150E040E060E6AE
:103A80007AEE80E090E00E94A434CA01B90125E0FA
:103A900030E040E050E00E94A434622F70E06C19E6
:103AA0007D09072E000C880B990B0E94A53527EA8B
:103AB00039E747E45DE30E9431364B015C01B60112
:103AC000DD0C880B990B0E94A5359B01AC01C5014B
:103AD000B4010E9408350E947435609358030E9417
:103AE0006C179093CD028093CC020C3283E41807BC
:103AF00009F468C00C3294E6190709F463C0003E6B
:103B0000110509F069C0F7018281882309F457C0C3
:103B100081E080935B03F7019281992309F4D6C475
:103B20001092CA030230FCE51F0708F494C1063165
:103B30002CE5120738F098012B5F3C452930310500
:103B400008F089C10E94821490936F0380936E03E2
:103B500000313CE5130709F44DC108F0DBC0083023
:103B60009CE5190709F43CC108F0AAC00430FCE543
:103B70001F0709F42DC108F090C002303CE513077F
:103B800009F41CC103301C4509F41EC160916E0389
:103B900010916F0384E090E00E947034612F81E205
:103BA00090E00E9470340E94B11831C090E080E033
:103BB0000F3F110511F008F04ACFC80148CF10920D
:103BC0005B03A9CFF7018281882309F442C081E019
:103BD00080935D0310921301043FFCE51F0709F475
:103BE0004DC0D0F5093D3CE5130709F443C00A3D3B
:103BF0008CE5180709F44EC0083D9CE5190709F04B
:103C00008ACF26E241EE61EEC7010E94571C8091E7
:103C10002603877009F4D4CEF7018281882309F442
:103C2000CFCE82E00F900F900F900F900F90DF910A
:103C3000CF911F910F91FF90EF90DF90CF90BF90A9
:103C4000AF909F908F907F906F905F904F900C946B
:103C50006E1810925D03C0CF063FECE51E07B1F071
:103C600088F0073F2CE5120709F055CF27E245EE13
:103C700066EECACF27E245EE65EEC6CF26E241EEFC
:103C800060EEC2CF27E245EE64EEBECF26E241EE03
:103C900062EEBACF28E241E0EFCF80916E038061FF
:103CA00006309CE5190709F48CC080916E0388608A
:103CB00007301C4508F485C080916E03806281C086
:103CC00080916E038D7F0C30FCE51F0709F479C0ED
:103CD00070F480916E038C600A303CE5130709F4A0
:103CE00070C008F481C080916E038E7F6AC080919D
:103CF0006E03877F0E309CE5190709F462C080913E
:103D00006E038B7F0F301C4508F45BC080916E03FF
:103D10008F7E57C00C3FFCE51F0709F45DC030F5EE
:103D200003313CE5130709F46DC078F401319CE5DB
:103D3000190709F463C002311C4509F027CF0E941E
:103D4000B11880916E038F773CC00531FCE51F07E9
:103D500009F460C008F474C080916F0381600B3F68
:103D60001C4509F013CF80936F0310CF01158DE52B
:103D7000180709F44BC088F480916F038D7F0E3FC4
:103D8000ECE51E0781F380916F038E7F0F3F1C458A
:103D900050F380916F038360E6CF02302DE5120768
:103DA00009F457C008F442C060E003301D4509F033
:103DB000EDCE8EE090E00E947034E8CE80916E03EC
:103DC000816080936E03E2CE80916E038260F9CFB2
:103DD00080916E038460F5CF80916F038260C3CFC2
:103DE00080916E038064EDCF0E94B11880916E03C4
:103DF0008068E7CF80916E038F7DE3CF80916E0363
:103E00008F7BDFCF80916E03837FDBCF80916F0349
:103E10008C7FA9CF80916E0382FB992790F921E0D6
:103E2000922790FB82F990FB83F9CBCF80916F03AF
:103E3000982F909591708E7F892B90FB81F993CF6D
:103E40000E94B11890916E03892F97FB87F98058D3
:103E5000B8CF61E0AECF0631ECE51E0709F048C3EC
:103E6000809129038A7A91E009F490E09093CE0240
:103E700069E2811165E380EE91E00E94CF090E9422
:103E8000EF09C5CE8091CE0281110FC089E2E2EE2A
:103E9000F1E028EE31E09191891303C0DF01119721
:103EA0001C922E173F07B9F7EACF85E3F0CF809138
:103EB000500380FF20C08E7F809350036091500399
:103EC0007091510380915203909153030E9490147A
:103ED0000E94260B80915703816080935703FFEF68
:103EE00020E732E0F15020403040E1F700C0000010
:103EF0000E9419118CCE81608093500361E08695F9
:103F00000E949C1784CE4CED57E165EE77E10E944C
:103F1000210B7DCE45EE57E16CED77E1F8CF40E81F
:103F200055E169E875E1F3CF49E855E160E875E1ED
:103F3000EECF48E655E164E775E1E9CF44E755E1A6
:103F400068E675E1E4CF40E555E16CE575E1DFCF6A
:103F50004CE555E160E575E1DACF42E955E163EA08
:103F600075E1D5CF43EA55E162E975E1D0CF61E073
:103F700081E0C6CF65E082E00E94EF1748CE68E09E
:103F800086E0FACF6EE089E0F7CF64E18FE0F4CF0E
:103F900067E185E1F1CF61E088E1B2CF62E289E1DA
:103FA000EBCF61E083E2ACCF0E94B1188FEF94E3D6
:103FB000ECE081509040E040E1F700C0000087E76E
:103FC00097E7909301088093000888E19AE00FB684
:103FD000F894A895809360000FBE90936000FFCF87
:103FE0000E94CC1514CEC8010E941C0AD82E97C27C
:103FF000212F2F70A22E107F19F0A29420EFA22261
:10400000DD20C9F0AA2069F080E2800F883010F02E
:1040100081100BC080912903A82AA09229030E9435
:10402000EF09802F0E94FA1B18C080912803A82A4C
:10403000A0922803F4CF802F0E94B91BAA2069F018
:10404000A094005E083010F0811045C080912903D3
:10405000A822A09229030E94EF09EB2DE850FF0B44
:10406000349710F40E94BE0ACC20A9F08091260358
:1040700080FD11C0F70112828595859585950E9476
:104080008618C7010E94BE1C8091260385958595E0
:1040900085950E944B1885E0F701DE01119601908D
:1040A0000D928A95E1F789819A810E941C0A9A8172
:1040B000E981F0E026E0929FE00DF11D112430E34C
:1040C000839FE00DF11D1124EE0FFF1FEB54FD4FF8
:1040D0008591949175CC80912803A822A092280301
:1040E000BACF312F3F70932E107F103219F0929477
:1040F00090EF9922882071F081E0881661F1DD202F
:10410000B9F1AA2071F1F701858180FF8ACF8F7004
:10411000858327C0DD2091F090912A03892D892B7A
:10412000A11003C00E94880A98CFE1E0AE12FACF36
:10413000981709F492CF80932A038FCFA11006C05D
:104140000E94E909892D0E947D0A87CFF1E0AF1610
:1041500009F483CFF5CFDD2031F025E02A1508F4EE
:104160007CCF892DDFCF34E03A1508F476CFEACF43
:10417000AA2041F3F9E38F1291C12FEF37EE83E0CC
:10418000215030408040E1F700C0000087C1812FFE
:1041900086958695837061F0813009F05ECFC80105
:1041A0009370D11002C090E080E00E94920A55CF37
:1041B000C8019370D11002C090E080E00E94A80A6C
:1041C0004CCF802FDD2029F00E94970C0E94FD1714
:1041D00044CF0E94DC0BFACF812F837009F066C0B8
:1041E000D1103BCF802F829586958770880F880FDE
:1041F000602F6F70462E512C712C612C082E04C03C
:10420000440C551C661C771C0A94D2F740E050E021
:10421000BA0104FF0FC04FE050E060E070E004C05E
:10422000440F551F661F771F8A95D2F7409550950A
:1042300060957095812F869586958370823019F1EF
:10424000D8F400912B0310912C0320912D03309171
:104250002E03813069F04429552966297729CB013D
:10426000BA0160237123822393230E94A718F5CEFD
:10427000402A512A622A732ACB01BA01642975297E
:1042800086299729F2CF4429552966297729009153
:104290002B0310912C0320912D0330912E03CB0181
:1042A000BA016027712782279327DFCF8695DD200B
:1042B00011F0812F8170882309F4CFCE802F829551
:1042C00086958770880F880F602F6F70462E512C4F
:1042D000712C612C082E04C0440C551C661C771CE4
:1042E0000A94D2F740E050E0BA0104FF0FC04FE05B
:1042F00050E060E070E004C0440F551F661F771F58
:104300008A95D2F74095509560957095812F869546
:1043100086958370823019F1D8F400916A03109168
:104320006B0320916C0330916D03813069F0442957
:10433000552966297729CB01BA016023712382238D
:1043400093230E94411889CE402A512A622A732A57
:10435000CB01BA016429752986299729F2CF44290E
:1043600055296629772900916A0310916B032091E2
:104370006C0330916D03CB01BA016027712782274E
:104380009327DFCF1F70DD2029F0812F0E94861830
:10439000802FC8CE802F0E947D0A812F0E944B184B
:1043A0005CCE802F92EF891609F450C0981578F0F2
:1043B000E0EF8E1619F1F1EF8F1609F43FC0DD2002
:1043C00009F467C0A1102DCE812F8F713CC023EF5F
:1043D000821609F440C034EF8312F1CFDD2009F4D6
:1043E0004DC01F71812F0E948618E8E01E9FC001FA
:1043F0001124836080932603812F25C0DD20C9F01E
:1044000084E08A1508F429CE1F7161E070E080E035
:1044100090E004C0660F771F881F991F1A95D2F786
:1044200000916A0310916B0320916C0330916D032E
:10443000A4CF95E09A1508F410CEE6CF812F8F71A6
:10444000DD2009F4ABCF0E94861807CE812F8F7133
:10445000DD20C9F3A3CF60E070E0CB01DD2009F4DB
:1044600070CF1F7161E070E080E090E004C0660FE3
:10447000771F881F991F1A95D2F763CF81E00E949A
:104480006E18F1E0FA1508F0E8CD82E00E946E188F
:10449000E4CDAA2039F0893309F46FCE802F0E9431
:1044A000B91BDBCD812F8F7179CF85E0DE011196AD
:1044B00001900D928A95E1F7F701228189819A8115
:1044C000211194CA0E941C0A082F98CA0631FCE5E3
:1044D0001F0709F4D7CC809129038272F801E35CAD
:1044E000FC45E431F10568F4E854F94C0C94FF30D4
:1044F00001152CE5120709F457CD0F3D1C4509F4B1
:104500006FCDF70100811181992309F46CCDC801A9
:104510000E94E70ED82E682FC8010E94450AB801F4
:104520008D2D0E944B0D8C01882EF701D280A58025
:10453000A2944FE0A422809126038770A1F0CD2C95
:10454000DD2091F0812F807F803421F080E2800F88
:10455000883048F082E00E946E18809126038770B0
:10456000CC24C3948111C12CB12EB2943FE0B3226C
:10457000FBE0FB1508F471CDEB2DF0E0E453F94CB2
:104580000C94FF301F93CF93DF938091D502807FEF
:10459000A9F48091D202882389F080910703D091F9
:1045A000D6026091D0027091D102A091D302B09155
:1045B000D402C62FC72316E0D81304C0DF91CF91D1
:1045C0001F91089590E0109711F0CF3F19F40196D4
:1045D0008770F2CF189F9001199F300D1124F901B7
:1045E000E952FD4F41814713F2CF40814613EFCF8F
:1045F00042814111ECCF438154814A1B5B0B483C03
:10460000510528F78091D5028F7080618093D50283
:10461000F901E452FD4F80818F708061808380EDCD
:1046200092E00E94BE1CDF91CF911F910C94730AFF
:10463000AF92BF92CF92DF92EF92FF920F931F93B0
:10464000CF93DF93CDB7DEB761970FB6F894DEBF97
:104650000FBECDBF8C0185E0F801DE011D960190F3
:104660000D928A95E1F7F80180819181E28020ED39
:10467000A22E22E0B22E6091D3027091D402611575
:10468000710509F43EC13091D0024091D102232F2F
:1046900024232F3F09F435C1C380D480F090D20287
:1046A000F601E61BF70BFF2009F4FBC02091D502B1
:1046B000522F507FE83CF10508F0BBC0511178C083
:1046C000FE2C491321C038131FC0E1101DC02F70EC
:1046D00020612093D502C5010E94BE1C8091D502A5
:1046E000F80185838F2D61960FB6F894DEBF0FBE5B
:1046F000CDBFDF91CF911F910F91FF90EF90DF9091
:10470000CF90BF90AF900895CD2829F0282F29236E
:104710002F3F09F014C120E0F22FF170DF2E20FFAF
:104720003DC0209107034091D60256E0241315C0E6
:104730008D879E878D859E850E94290F292F229522
:104740002F702230F8F0243020F59F70F9F0F80136
:104750009581907FD9F4D12C1FC030E0529FF00199
:10476000539FF00D1124E952FD4F6181961306C04D
:104770006081861303C06281E61210C02F5F3F4F35
:104780002770D4CF9F7011F0882329F3805E883082
:1047900010F3C8010E94BE1CFD2CA4CFEE2009F42A
:1047A000A1CF8091D50281608093D502F12C9ACF60
:1047B000491312C0381310C0E1100EC0F801258350
:1047C000C8010E94BE1C86E0F801A0EDB2E0019095
:1047D0000D928A95E1F786CF8D879E878D859E8580
:1047E0000E94330F882309F1EE20F9F08091D50261
:1047F000803270F02091D0023091D10238872F831F
:104800001986DB86CA868C87CE0107960E94BE1C5D
:1048100086E0F801A0EDB2E001900D928A95E1F7F3
:104820000E94C222FF24F3945DCFC8010E94BE1CE7
:10483000F9CF51110AC080ED92E00E94BE1C86E0C3
:10484000F50111928A95E9F7B1CF49130FC03813DA
:104850000DC0E1100BC0F8012583C8010E94BE1CE9
:1048600086E0F50111928A95E9F73CCF8D879E8706
:104870008D859E850E94330F8823B9F2EE20A9F220
:104880008091D502803220F22091D0023091D10265
:104890003A8329831B82DD82CC828E83CE010196EE
:1048A000B5CFE83CF105E0F6FE2CEE2009F4BDCFD3
:1048B000491316C0381314C08091D50280FD83CFF0
:1048C000982F907F09F47FCFF8018583903F09F4FA
:1048D00077CF982F907F905F8F70892B858370CFD3
:1048E0008D879E878D859E850E94330F811190CF85
:1048F0008091D50281608093D502C8010E94BE1CC0
:10490000F1CEEE2009F491CF8D879E878D859E850F
:104910000E94330FF82E882309F487CF86E0F80130
:10492000A0EDB2E001900D928A95E1F78091D0025E
:104930009091D1020E94290F0E94C222D3CE21E081
:104940002E25EACE1F93CF93DF93CDB7DEB76797BF
:104950000FB6F894DEBF0FBECDBF342F4B8B252F83
:104960005C8B6D8B7E8B8F8B8E899F8961111092F2
:1049700028031A8A198A3D872E876F87998B888B1F
:1049800086E0FE013D96DE01179601900D928A9514
:10499000E1F7CE0107960E941823882389F016E0DC
:1049A000809107039091D602891349C067960FB68C
:1049B000F894DEBF0FBECDBFDF91CF911F91089558
:1049C00086E0FE013796DE01119601900D928A95E0
:1049D000E1F78A859B85892B11F38F81988589233F
:1049E0008F3FE9F22091D60230E0C901019687702D
:1049F0009927409107034817190671F40E94B118CE
:104A00001092D6021092070386E0E0EDF2E0DF019B
:104A10001D928A95E9F7C3CF96E0929FD001939FAC
:104A2000B00D1124A952BD4FFE01319601900D9297
:104A30009A95E1F78093D6020E94730AB0CF819FC6
:104A4000C001112489529D4F0E941823882309F424
:104A5000ADCF8091070390E00196877099278093EE
:104A600007039ECF8F929F92AF92BF92CF92DF9219
:104A7000EF92FF920F931F93CF93DF9300D000D05C
:104A8000CDB7DEB787ECE82E81E0F82E93E3A92EB0
:104A900093E0B92E00E0CC24C394D12CF70181918E
:104AA0007F01F894E82FE295EF70F0E021A18F707C
:104AB000A60102C0440F551F8A95E2F7CA01922F42
:104AC000982B91A392A18095892382A3789400C00A
:104AD000EFECF1E030E020E010E04191A42FA2954E
:104AE000AF70B0E090968C9190E04F7002C09595B9
:104AF00087954A95E2F780FD4CC08C2D022E01C0AF
:104B0000880F0A94EAF7182B2F5F3F4F26303105A4
:104B100021F7F701319780810E94F10C50EA5A95F4
:104B2000F1F7F50180811817B1F1108381E0082BAE
:104B3000FFEFAF1ABF0A2BECE21621E0F20609F0F4
:104B4000ADCF10913C03002341F181E08093EA0155
:104B50000E946C179093E9018093E8018091E8012D
:104B60009091E9010E94B4090697D8F0E12FF0E096
:104B7000E15CFC4F80913303808380913403818317
:104B80008091350382838091360383831092EA01FA
:104B900008C080E0B8CF80E0CACF8091EA018111DF
:104BA000DDCF0E94B713182F60913C03882309F4CE
:104BB0008FC019821A821B821C82862F90E0BE0150
:104BC0006F5F7F4F815C9C4F0E94BF2D811160C041
:104BD0008091EB018F5F8093EB01863008F476C003
:104BE000E0913B03F0E0E15CFC4FDE011196CE0169
:104BF000059611921D92A817B907D9F78091CC029A
:104C00009091CD020E94B409893E934060F1609179
:104C10005803E62EF12C662777276E197F09072E99
:104C2000000C880B990B0E94A53527EA39E747E469
:104C30005DE30E9431364B015C01B701FF0C880B2C
:104C4000990B0E94A5359B01AC01C501B4010E94DE
:104C500008350E947435609358030E946C17909336
:104C6000CD028093CC02011101C0012F802F0F9043
:104C70000F900F900F90DF91CF911F910F91FF90A8
:104C8000EF90DF90CF90BF90AF909F908F9008955E
:104C90001092EB01A0913B03B0E0A15CBC4FBE01C0
:104CA0006F5F7F4F9E012B5F3F4F10E04D91FB01E7
:104CB0009191BF01491731F0AD0141505109FA01FD
:104CC0009083182F6217730789F798CF10E096CF5B
:104CD00070E0615C7C4F80913B0390E0815C9C4F75
:104CE0000E94EE2DC0CFCDB7DEB766970FB6F89411
:104CF000DEBF0FBECDBF84B7877F84BF0FB6F894E9
:104D0000A895809160008861809360001092600097
:104D10000FBE80E890E00FB6F89480936100909306
:104D200061000FBE85B7806885BF85B7806885BF85
:104D30008FEA99E09093DF018093DE010E942408BE
:104D40000E94EF088091E20084608093E2007894F2
:104D50008091BE038823A1F01091E9001F7090910B
:104D6000EC00892F817090FD80E8182B1092E900EB
:104D70008091E80083FD0E94BC181F701093E90029
:104D800082E084BD93E095BD9AEF97BD80936E005D
:104D900010922F03109230031092310310923203BD
:104DA0000E94B71391E08927809312010E94B713E4
:104DB00081110E94962D809112018091120194E040
:104DC000811190E090933C0384E0891B80933B0326
:104DD00084E90E94F10C86E60E94F10C87E90E94AA
:104DE000F10C86EC0E94F10C84EF0E94F10C85EF2F
:104DF0000E94F10C86EF0E94F10C87EF0E94F10CEB
:104E000081E30E94F10C83E30E94F10CE3E3F3E001
:104E10008BE393E0AFE3B3E011921D928E179F07EF
:104E2000D9F790E080E00E946A348B3E9E4F11F0EB
:104E30000E94CC150E94B713811102C00E949C2DC4
:104E40000E94B7138111ECC182E08093930380E844
:104E50008093CB030E94112E6DE070E088EA94E00D
:104E60000E941D10892BE9F58091930363E070E0A7
:104E700081FDDBC185EA94E00E941D10892B89F534
:104E80006DE070E085E994E00E941D10892B49F5E2
:104E90000E94C309605A75418F4F9F4F60939503DD
:104EA000709396038093970390939803EEECF3E04E
:104EB00080E092E0DF019C011D9221503040E1F73B
:104EC000F093D505E093D4058FEF9FEF9093CD033A
:104ED0008093CC0381E080939A038093990310928E
:104EE000940390E080E00E946A348B3E9E4F11F064
:104EF0000E94CC1582E090E00E945C348093A8036D
:104F00000E94821490936F0380936E0383E090E07D
:104F10000E945C34682F70E090E080E00E94A71847
:104F200080913D0381113BC090E080E00E946A3493
:104F30008B3E9E4F21F00E94CC150E94B41588E054
:104F400090E00E9464346093500370935103809307
:104F500052039093530380915703836080935703C8
:104F60006E7F71F40E94B41588E090E00E94643472
:104F700060935003709351038093520390935303B3
:104F80000E942D0B0E94260B8091500380FF04C0CD
:104F900060E086950E949C1781E080933D038BE141
:104FA00091E090935A03809359038FE393E0A8E034
:104FB000A80FAC8BFE0131967F018091BE0300E10A
:104FC00012E1853009F46AC10E943225D82E811180
:104FD0000E94C309E9EAF3E0AFE3B3E010E000E0C8
:104FE000902EBD9081918B1509F467C18B25A12C62
:104FF000CC24C394982F9C2109F45AC10E94B71362
:10500000882399F0AA869B86BC2081E009F480E081
:105010008C870E946C178160782F9E878D874A85C8
:105020005B856C858E850E94A224F801E755FC4FB4
:105030008081C826C08280915603882309F464C009
:1050400080915503E0915003E695E81BE0934C03F3
:10505000823009F049C1F0E0EA53FB4FE4910E2F92
:1050600010E0F3E9AF2EF3E1BF2E80914D038823CA
:1050700061F010924D030E94781790934B03809338
:105080004A0310924F0310924E030E947817E0914A
:105090004A03F0914B039C012E1B3F0B2F3F3F47D0
:1050A00098F5209149032223B1F0109249032091F1
:1050B000470330914803821B930B8F3F9F4758F45F
:1050C000205D3A483093480320934703809157036B
:1050D00088608093570380904E0390904F03E00FB9
:1050E000F11FF0934B03E0934A038AE493E0F50148
:1050F000099580914E0390914F03892B29F48928BB
:1051000019F081E08093490380919A03882309F480
:1051100084C260E080E00E940A0B8091580390E016
:105120009093720380937103E0915903F0915A03B5
:1051300080E0309721F00190F081E02D0995809377
:1051400070030E94B713882309F435C260E080E041
:105150000E940A0B80916F0360E470E080FF30C111
:105160008AEC98E00E94CA0A65E080E00E940A0B7F
:1051700040916A0350916B0360916C0370916D03D1
:10518000CB01AA27BB270097A105B10509F41BC1D4
:10519000AC01BD0180E1052F162F272F3327011504
:1051A00011052105310519F0885FB901A8018A01AF
:1051B0009B01A4E03695279517950795AA95D1F7F9
:1051C000011511052105310519F08C5FB901A80100
:1051D0008A019B01F2E03695279517950795FA9578
:1051E000D1F7011511052105310519F08E5FB901BF
:1051F000A8017695679557954795452B462B472BE4
:1052000009F08F5F823009F497C108F0DEC088236F
:1052100009F4E4C0813009F492C184E591E0E0C072
:1052200083E08093930380E213CE82EA94E024CE5D
:105230008091BE03843021F110923E0328E130E0DA
:1052400040E40FB6F894A895209360000FBE4093F9
:10525000600083B7817F846083BF83B7816083BF31
:105260007894889583B78E7F83BF0FB6F894A895FE
:1052700080916000886180936000109260000FBE92
:105280008091BD03882351F00E943225EFE3F3E0C3
:1052900081918111A1C38C898E13FACF8091BE03B5
:1052A000853009F4C5CF0E94B1180E94BE0A8CCE89
:1052B000A394CC0C96E0A9129DCE0F5F1F4F08302F
:1052C000110509F08DCE8FEF8F87888B198A0E9488
:1052D0006C178160782F9B8B8A8B4F8558896989E1
:1052E0008B890E94A224A7CE863059F4F0E0ED53BA
:1052F000FB4FE4910E2F10E0E7EAAE2EE3E1BE2E65
:10530000B4CE893061F4E695F0E0E054FB4FE491CF
:105310000E2F10E07EE4A72E71E1B72EA6CE8F30BF
:1053200061F4E695F0E0E354FB4FE4910E2F10E0BA
:1053300068E7A62E61E1B62E98CE853159F4F0E0EB
:10534000E654FB4FE4910E2F10E053E0A52E52E1FE
:10535000B52E8BCE08E210E027E6A22E22E1B22E77
:10536000883109F482CE833249F4E8EBF4E0059108
:1053700014914AE3A42E43E1B42E77CE04EF11E05A
:1053800090EFA92E92E1B92E843209F46ECE8532C7
:1053900081F48E2F63E00E94BD30E92FF0E0EB54E2
:1053A000FB4FE4910E2F10E033EDA32E33E1B32E2B
:1053B0005CCE00ED17E08EEAA82E89E0B82E55CE1F
:1053C0008AE898E0CFCE80E0E6CE833009F4B1C021
:1053D000843009F022CF88E491E002C086E391E0B6
:1053E0000E94051040916603509167036091680325
:1053F000709169032FB7F89480915E0390915F03D9
:10540000A0916003B09161032FBF841B950BA60B85
:10541000B70B87399105A105B105E8F10E94C309D1
:1054200060936603709367038093680390936903A6
:1054300080915D03811104C080911301811182C0AC
:105440006BE080E00E940A0B8AE591E00E94051063
:1054500068E080E00E940A0B81E080931301809154
:105460005C0390E001968170992780935C0321E0B2
:1054700030E0281B390B40E6429FC001439F900D4E
:1054800011242091700321FF6AC060E670E086530A
:10549000984F0E94CA0A8091710390917203181666
:1054A00019060CF478C04091620350916303609137
:1054B0006403709165032FB7F89480915E03909117
:1054C0005F03A0916003B09161032FBF841B950B14
:1054D000A60BB70B81369A4EA105B10510F00E94BC
:1054E0004D106EE080E00E940A0B809172038F9352
:1054F000809171038F9380E691E09F938F93FF9249
:10550000EF920E94CA31C7010E9405106FE080E04F
:105510000E940A0B86E691E00E9405100F900F9002
:105520000F900F900F900F9080919A03811154C0AB
:105530005BC08CE391E054CF82E491E051CF8EE4E4
:1055400091E04ECF68E080E00E940A0B8AE591E08E
:105550000E94051069E080E00E940A0B80CF209134
:105560005B03222329F060E670E0865F984F91CFBD
:10557000209171033091720360E670E02B303105A9
:105580001CF4865B994F85CF293231058CF4865700
:105590009A4F0E94CA0A0E9468100E94C309609331
:1055A000620370936303809364039093650399CFC0
:1055B00086539B4FEECFEAE0F9E084918F01811191
:1055C00001C180919A03882379F08091CC03909156
:1055D000CD03892B09F4FDC02091CC033091CD037C
:1055E0002115310509F015C1809199038823A9F08F
:1055F0000E94C3090091950310919603209197038F
:1056000030919803601B710B820B930B6F3F7F4FA0
:105610008F4F9F4710F40E944D10D1100E946810C8
:1056200086E0E1EAF3E0D70101900D928A95E1F777
:10563000D090A303C090A4031091A5030091A603EA
:105640001092A3031092A4031092A5031092A60334
:105650008D2D8C2909F448C080919F039091A0035F
:105660000E94B4099C0190919E03992309F4CFC133
:1056700023333105C8F19F3F19F09F5F90939E033C
:10568000DD2059F00E94770C9FEF1D140CF491E07F
:10569000899F802D11248093A303CC2059F00E9470
:1056A000770C9FEF1C140CF491E0899F802D11243E
:1056B0008093A4033091A3033323B1F02091A4037A
:1056C000222391F045EB3403C0011124992309F4FE
:1056D00073C19093A30345EB24039001112433235A
:1056E00009F46EC13093A403812F802B09F448C0C4
:1056F00080919C0390919D030E94B4099C0190911C
:105700009B03992309F47EC125363105C8F19F3FDB
:1057100019F09F5F90939B03112359F00E94550C41
:105720009FEF11160CF491E0899F802D1124809336
:10573000A503002359F00E94550C9FEF10160CF49E
:1057400091E0899F802D11248093A6033091A503B9
:105750003323B1F02091A603222391F045EB3403CB
:10576000C0011124992309F42FC19093A50345EB9F
:10577000240390011124332309F42AC13093A60392
:105780008091A3039091A403892B9091A503892B69
:105790009091A603892B11F00E94FD1786E0F70176
:1057A000A1EAB3E001900D928A95E1F70E94BE0A4A
:1057B0009091A703891709F400CC0E94BE0A809338
:1057C000A703FBCB0E94570F0F5F1F4FF801849177
:1057D000F6CE809194038111FFCE198287E28A83ED
:1057E0001B821C821D8287E08E831F828FEF888739
:1057F0008FE2898724E630E049E050E0B70188E78E
:105800000E94A22E892B09F08FCE81E08093940311
:105810008BCE8091940361E070E08111E5CE082F7A
:1058200010E02B01082E02C0440C551C0A94E2F72C
:10583000A90144215521452B09F448C090919303B7
:1058400090FD46C08295880F80768093160198015E
:10585000369527953695279520931901815E80937B
:10586000170110921A0124E630E047E050E064E1AD
:1058700071E088E70E94A22E892B09F0B5CEA8011D
:1058800025E0440F551F2A95E1F78091930380FD91
:105890002DC042535C4F04E610E020E230E060E4AB
:1058A00088E70E94C92E892B09F09ECE0E946810BD
:1058B000C201809590954090CC035090CD03482232
:1058C00059225092CD034092CC038ECE8F5FA7CF4A
:1058D000880F880F880F8093160110921901895F35
:1058E0008093170183E080931A01BDCFE3E7F3E0D3
:1058F00080E2DF011D928A95E9F7E9EDF1E0FE8B88
:10590000ED8B05ED11E09DED892E91E0992EAD898D
:10591000BE892D91BE8BAD8BF80121908F01240E95
:10592000352E311CC10182539C4F1C01E22FF0E047
:10593000ED58FC4F30E020E087E0682E621ACC245E
:10594000C394022E01C0CC0C0A94EAF7510190E0F6
:10595000D5018D915D018C21662D691B6770762EB6
:10596000062E000C770BB82F01C0BB0F7A94EAF714
:105970007B2E7195619571096770772701C08695B7
:105980006A95EAF7782A8081782A70829F5F98303A
:10599000F9F62F5F3F4F31962830310569F6ED89D2
:1059A000FE898E169F0609F0B2CF04E610E020E2D1
:1059B00030E043E753E073CF81E08093A3038BCEC5
:1059C00081E08093A40390CE81E08093A503CFCEA5
:1059D00081E08093A603D4CE09BD19BD09B400FEB1
:1059E000FDCF8091D8008F7D8093D8008091E0001A
:1059F00082608093E0008091E00081FDFCCF0E94F6
:105A0000B1184CCC2D32314008F083CEB9CE2D32B6
:105A1000314008F032CE68CE1F921FB61F9211247B
:105A20008F939F93AF93BF9380913E03811113C0D7
:105A300080915E0390915F03A0916003B091610338
:105A40004196A11DB11D80935E0390935F03A093C7
:105A50006003B0936103BF91AF919F918F911F90AD
:105A60001FBE1F9018958093580308951F93CF93DE
:105A7000DF93EC01162F8F8180FF0BC088819091FE
:105A8000500380FF21C091609093500386950E943F
:105A90009C178F8181FF06C0212F4B816A818981EC
:105AA0000E94A2148F8182FF05C08E81882311F18C
:105AB0000E9481178F8183FF03C081E080934D0393
:105AC000DF91CF911F9108959E7F909350030E9484
:105AD000260B809157038160809357032FEF80E757
